{
  "contractName": "MasterChef",
  "abi": [
    {
      "inputs": [
        {
          "internalType": "contract SwiftToken",
          "name": "_swift",
          "type": "address"
        },
        {
          "internalType": "address",
          "name": "_devaddr",
          "type": "address"
        },
        {
          "internalType": "address",
          "name": "_feeAddress",
          "type": "address"
        },
        {
          "internalType": "uint256",
          "name": "_swiftPerBlock",
          "type": "uint256"
        },
        {
          "internalType": "uint256",
          "name": "_startBlock",
          "type": "uint256"
        }
      ],
      "stateMutability": "nonpayable",
      "type": "constructor"
    },
    {
      "anonymous": false,
      "inputs": [
        {
          "indexed": true,
          "internalType": "address",
          "name": "user",
          "type": "address"
        },
        {
          "indexed": true,
          "internalType": "uint256",
          "name": "pid",
          "type": "uint256"
        },
        {
          "indexed": false,
          "internalType": "uint256",
          "name": "amount",
          "type": "uint256"
        }
      ],
      "name": "Deposit",
      "type": "event"
    },
    {
      "anonymous": false,
      "inputs": [
        {
          "indexed": true,
          "internalType": "address",
          "name": "user",
          "type": "address"
        },
        {
          "indexed": true,
          "internalType": "uint256",
          "name": "pid",
          "type": "uint256"
        },
        {
          "indexed": false,
          "internalType": "uint256",
          "name": "amount",
          "type": "uint256"
        }
      ],
      "name": "EmergencyWithdraw",
      "type": "event"
    },
    {
      "anonymous": false,
      "inputs": [
        {
          "indexed": true,
          "internalType": "address",
          "name": "previousOwner",
          "type": "address"
        },
        {
          "indexed": true,
          "internalType": "address",
          "name": "newOwner",
          "type": "address"
        }
      ],
      "name": "OwnershipTransferred",
      "type": "event"
    },
    {
      "anonymous": false,
      "inputs": [
        {
          "indexed": true,
          "internalType": "address",
          "name": "user",
          "type": "address"
        },
        {
          "indexed": true,
          "internalType": "uint256",
          "name": "pid",
          "type": "uint256"
        },
        {
          "indexed": false,
          "internalType": "uint256",
          "name": "amount",
          "type": "uint256"
        }
      ],
      "name": "Withdraw",
      "type": "event"
    },
    {
      "inputs": [],
      "name": "BONUS_MULTIPLIER",
      "outputs": [
        {
          "internalType": "uint256",
          "name": "",
          "type": "uint256"
        }
      ],
      "stateMutability": "view",
      "type": "function"
    },
    {
      "inputs": [],
      "name": "devaddr",
      "outputs": [
        {
          "internalType": "address",
          "name": "",
          "type": "address"
        }
      ],
      "stateMutability": "view",
      "type": "function"
    },
    {
      "inputs": [],
      "name": "feeAddress",
      "outputs": [
        {
          "internalType": "address",
          "name": "",
          "type": "address"
        }
      ],
      "stateMutability": "view",
      "type": "function"
    },
    {
      "inputs": [],
      "name": "owner",
      "outputs": [
        {
          "internalType": "address",
          "name": "",
          "type": "address"
        }
      ],
      "stateMutability": "view",
      "type": "function"
    },
    {
      "inputs": [
        {
          "internalType": "uint256",
          "name": "",
          "type": "uint256"
        }
      ],
      "name": "poolInfo",
      "outputs": [
        {
          "internalType": "contract IERC20",
          "name": "lpToken",
          "type": "address"
        },
        {
          "internalType": "uint256",
          "name": "allocPoint",
          "type": "uint256"
        },
        {
          "internalType": "uint256",
          "name": "lastRewardBlock",
          "type": "uint256"
        },
        {
          "internalType": "uint256",
          "name": "accSwiftPerShare",
          "type": "uint256"
        },
        {
          "internalType": "uint16",
          "name": "depositFeeBP",
          "type": "uint16"
        }
      ],
      "stateMutability": "view",
      "type": "function"
    },
    {
      "inputs": [],
      "name": "renounceOwnership",
      "outputs": [],
      "stateMutability": "nonpayable",
      "type": "function"
    },
    {
      "inputs": [],
      "name": "startBlock",
      "outputs": [
        {
          "internalType": "uint256",
          "name": "",
          "type": "uint256"
        }
      ],
      "stateMutability": "view",
      "type": "function"
    },
    {
      "inputs": [],
      "name": "swift",
      "outputs": [
        {
          "internalType": "contract SwiftToken",
          "name": "",
          "type": "address"
        }
      ],
      "stateMutability": "view",
      "type": "function"
    },
    {
      "inputs": [],
      "name": "swiftPerBlock",
      "outputs": [
        {
          "internalType": "uint256",
          "name": "",
          "type": "uint256"
        }
      ],
      "stateMutability": "view",
      "type": "function"
    },
    {
      "inputs": [],
      "name": "totalAllocPoint",
      "outputs": [
        {
          "internalType": "uint256",
          "name": "",
          "type": "uint256"
        }
      ],
      "stateMutability": "view",
      "type": "function"
    },
    {
      "inputs": [
        {
          "internalType": "address",
          "name": "newOwner",
          "type": "address"
        }
      ],
      "name": "transferOwnership",
      "outputs": [],
      "stateMutability": "nonpayable",
      "type": "function"
    },
    {
      "inputs": [
        {
          "internalType": "uint256",
          "name": "",
          "type": "uint256"
        },
        {
          "internalType": "address",
          "name": "",
          "type": "address"
        }
      ],
      "name": "userInfo",
      "outputs": [
        {
          "internalType": "uint256",
          "name": "amount",
          "type": "uint256"
        },
        {
          "internalType": "uint256",
          "name": "rewardDebt",
          "type": "uint256"
        }
      ],
      "stateMutability": "view",
      "type": "function"
    },
    {
      "inputs": [],
      "name": "poolLength",
      "outputs": [
        {
          "internalType": "uint256",
          "name": "",
          "type": "uint256"
        }
      ],
      "stateMutability": "view",
      "type": "function"
    },
    {
      "inputs": [
        {
          "internalType": "uint256",
          "name": "_allocPoint",
          "type": "uint256"
        },
        {
          "internalType": "contract IERC20",
          "name": "_lpToken",
          "type": "address"
        },
        {
          "internalType": "uint16",
          "name": "_depositFeeBP",
          "type": "uint16"
        },
        {
          "internalType": "bool",
          "name": "_withUpdate",
          "type": "bool"
        }
      ],
      "name": "add",
      "outputs": [],
      "stateMutability": "nonpayable",
      "type": "function"
    },
    {
      "inputs": [
        {
          "internalType": "uint256",
          "name": "_pid",
          "type": "uint256"
        },
        {
          "internalType": "uint256",
          "name": "_allocPoint",
          "type": "uint256"
        },
        {
          "internalType": "uint16",
          "name": "_depositFeeBP",
          "type": "uint16"
        },
        {
          "internalType": "bool",
          "name": "_withUpdate",
          "type": "bool"
        }
      ],
      "name": "set",
      "outputs": [],
      "stateMutability": "nonpayable",
      "type": "function"
    },
    {
      "inputs": [
        {
          "internalType": "uint256",
          "name": "_from",
          "type": "uint256"
        },
        {
          "internalType": "uint256",
          "name": "_to",
          "type": "uint256"
        }
      ],
      "name": "getMultiplier",
      "outputs": [
        {
          "internalType": "uint256",
          "name": "",
          "type": "uint256"
        }
      ],
      "stateMutability": "pure",
      "type": "function"
    },
    {
      "inputs": [
        {
          "internalType": "uint256",
          "name": "_pid",
          "type": "uint256"
        },
        {
          "internalType": "address",
          "name": "_user",
          "type": "address"
        }
      ],
      "name": "pendingSwift",
      "outputs": [
        {
          "internalType": "uint256",
          "name": "",
          "type": "uint256"
        }
      ],
      "stateMutability": "view",
      "type": "function"
    },
    {
      "inputs": [],
      "name": "massUpdatePools",
      "outputs": [],
      "stateMutability": "nonpayable",
      "type": "function"
    },
    {
      "inputs": [
        {
          "internalType": "uint256",
          "name": "_pid",
          "type": "uint256"
        }
      ],
      "name": "updatePool",
      "outputs": [],
      "stateMutability": "nonpayable",
      "type": "function"
    },
    {
      "inputs": [
        {
          "internalType": "uint256",
          "name": "_pid",
          "type": "uint256"
        },
        {
          "internalType": "uint256",
          "name": "_amount",
          "type": "uint256"
        }
      ],
      "name": "deposit",
      "outputs": [],
      "stateMutability": "nonpayable",
      "type": "function"
    },
    {
      "inputs": [
        {
          "internalType": "uint256",
          "name": "_pid",
          "type": "uint256"
        },
        {
          "internalType": "uint256",
          "name": "_amount",
          "type": "uint256"
        }
      ],
      "name": "withdraw",
      "outputs": [],
      "stateMutability": "nonpayable",
      "type": "function"
    },
    {
      "inputs": [
        {
          "internalType": "uint256",
          "name": "_pid",
          "type": "uint256"
        }
      ],
      "name": "emergencyWithdraw",
      "outputs": [],
      "stateMutability": "nonpayable",
      "type": "function"
    },
    {
      "inputs": [
        {
          "internalType": "address",
          "name": "_devaddr",
          "type": "address"
        }
      ],
      "name": "dev",
      "outputs": [],
      "stateMutability": "nonpayable",
      "type": "function"
    },
    {
      "inputs": [
        {
          "internalType": "address",
          "name": "_feeAddress",
          "type": "address"
        }
      ],
      "name": "setFeeAddress",
      "outputs": [],
      "stateMutability": "nonpayable",
      "type": "function"
    },
    {
      "inputs": [
        {
          "internalType": "uint256",
          "name": "_swiftPerBlock",
          "type": "uint256"
        }
      ],
      "name": "updateEmissionRate",
      "outputs": [],
      "stateMutability": "nonpayable",
      "type": "function"
    },
    {
      "inputs": [
        {
          "internalType": "uint256",
          "name": "_startBlock",
          "type": "uint256"
        }
      ],
      "name": "updateStartBlock",
      "outputs": [],
      "stateMutability": "nonpayable",
      "type": "function"
    }
  ],
  "bytecode": "0x608060405260006007553480156200001657600080fd5b50604051620031a1380380620031a183398181016040528101906200003c919062000144565b60006200004e620000f760201b60201c565b9050806000806101000a81548173ffffffffffffffffffffffffffffffffffffffff021916908373ffffffffffffffffffffffffffffffffffffffff1602179055508073ffffffffffffffffffffffffffffffffffffffff16600073ffffffffffffffffffffffffffffffffffffffff167f8be0079c531659141344cd1fd0a4f28419497f9722a3daafe3b4186f6b6457e060405160405180910390a350505050505062000266565b600033905090565b600081519050620001108162000218565b92915050565b600081519050620001278162000232565b92915050565b6000815190506200013e816200024c565b92915050565b600080600080600060a086880312156200015d57600080fd5b60006200016d8882890162000116565b95505060206200018088828901620000ff565b94505060406200019388828901620000ff565b9350506060620001a6888289016200012d565b9250506080620001b9888289016200012d565b9150509295509295909350565b6000620001d382620001ee565b9050919050565b6000620001e782620001c6565b9050919050565b600073ffffffffffffffffffffffffffffffffffffffff82169050919050565b6000819050919050565b6200022381620001c6565b81146200022f57600080fd5b50565b6200023d81620001da565b81146200024957600080fd5b50565b62000257816200020e565b81146200026357600080fd5b50565b612f2b80620002766000396000f3fe608060405234801561001057600080fd5b506004361061018e5760003560e01c806380f11767116100de5780638dbb1e3a11610097578063d963842211610071578063d96384221461043e578063e2bbb1581461045a578063f2fde38b14610476578063fac2b9ba146104925761018e565b80638dbb1e3a146103bf57806393f1a40b146103ef578063d49e77cd146104205761018e565b806380f11767146102ff57806384e82a331461032f5780638705fcd41461034b5780638aa28550146103675780638d88a90e146103855780638da5cb5b146103a15761018e565b8063412753581161014b57806351eb05a61161012557806351eb05a6146102b35780635312ea8e146102cf578063630b5ba1146102eb578063715018a6146102f55761018e565b8063412753581461025b578063441a3e701461027957806348cd4cb1146102955761018e565b8063081e3eda146101935780630ba84cd2146101b15780630d7f7f0a146101cd5780631526fe27146101eb57806317caf6f11461021f5780633a1332001461023d575b600080fd5b61019b6104ae565b6040516101a89190612b5c565b60405180910390f35b6101cb60048036038101906101c69190612377565b6104bb565b005b6101d5610549565b6040516101e29190612b5c565b60405180910390f35b61020560048036038101906102009190612377565b61054f565b60405161021695949392919061298c565b60405180910390f35b6102276105c3565b6040516102349190612b5c565b60405180910390f35b6102456105c9565b60405161025291906129df565b60405180910390f35b6102636105ef565b6040516102709190612911565b60405180910390f35b610293600480360381019061028e9190612468565b610615565b005b61029d61086d565b6040516102aa9190612b5c565b60405180910390f35b6102cd60048036038101906102c89190612377565b610873565b005b6102e960048036038101906102e49190612377565b610baa565b005b6102f3610d0b565b005b6102fd610d3e565b005b610319600480360381019061031491906123c9565b610e78565b6040516103269190612b5c565b60405180910390f35b61034960048036038101906103449190612405565b6110d2565b005b61036560048036038101906103609190612325565b6112d6565b005b61036f6113aa565b60405161037c9190612b5c565b60405180910390f35b61039f600480360381019061039a9190612325565b6113af565b005b6103a9611483565b6040516103b69190612911565b60405180910390f35b6103d960048036038101906103d49190612468565b6114ac565b6040516103e69190612b5c565b60405180910390f35b610409600480360381019061040491906123c9565b6114dc565b604051610417929190612b77565b60405180910390f35b61042861150d565b6040516104359190612911565b60405180910390f35b610458600480360381019061045391906124a4565b611533565b005b610474600480360381019061046f9190612468565b61173b565b005b610490600480360381019061048b9190612325565b611a65565b005b6104ac60048036038101906104a79190612377565b611c0e565b005b6000600580549050905090565b6104c3611c94565b73ffffffffffffffffffffffffffffffffffffffff166104e1611483565b73ffffffffffffffffffffffffffffffffffffffff1614610537576040517f08c379a000000000000000000000000000000000000000000000000000000000815260040161052e90612abc565b60405180910390fd5b61053f610d0b565b8060038190555050565b60035481565b6005818154811061055f57600080fd5b90600052602060002090600502016000915090508060000160009054906101000a900473ffffffffffffffffffffffffffffffffffffffff16908060010154908060020154908060030154908060040160009054906101000a900461ffff16905085565b60075481565b600160009054906101000a900473ffffffffffffffffffffffffffffffffffffffff1681565b600460009054906101000a900473ffffffffffffffffffffffffffffffffffffffff1681565b600060058381548110610651577f4e487b7100000000000000000000000000000000000000000000000000000000600052603260045260246000fd5b9060005260206000209060050201905060006006600085815260200190815260200160002060003373ffffffffffffffffffffffffffffffffffffffff1673ffffffffffffffffffffffffffffffffffffffff168152602001908152602001600020905082816000015410156106fc576040517f08c379a00000000000000000000000000000000000000000000000000000000081526004016106f390612afc565b60405180910390fd5b61070584610873565b600061074f826001015461074164e8d4a5100061073387600301548760000154611c9c90919063ffffffff16565b611cb290919063ffffffff16565b611cc890919063ffffffff16565b90506000811115610765576107643382611cde565b5b60008411156107dd57610785848360000154611cc890919063ffffffff16565b82600001819055506107dc33858560000160009054906101000a900473ffffffffffffffffffffffffffffffffffffffff1673ffffffffffffffffffffffffffffffffffffffff16611f009092919063ffffffff16565b5b61080f64e8d4a5100061080185600301548560000154611c9c90919063ffffffff16565b611cb290919063ffffffff16565b8260010181905550843373ffffffffffffffffffffffffffffffffffffffff167ff279e6a1f5e320cca91135676d9cb6e44ca8a08c0b88342bcdb1144f6511b5688660405161085e9190612b5c565b60405180910390a35050505050565b60085481565b6000600582815481106108af577f4e487b7100000000000000000000000000000000000000000000000000000000600052603260045260246000fd5b90600052602060002090600502019050806002015443116108d05750610ba7565b60008160000160009054906101000a900473ffffffffffffffffffffffffffffffffffffffff1673ffffffffffffffffffffffffffffffffffffffff166370a08231306040518263ffffffff1660e01b815260040161092f9190612911565b60206040518083038186803b15801561094757600080fd5b505afa15801561095b573d6000803e3d6000fd5b505050506040513d601f19601f8201168201806040525081019061097f91906123a0565b90506000811480610994575060008260010154145b156109a9574382600201819055505050610ba7565b60006109b98360020154436114ac565b905060006109fc6007546109ee86600101546109e060035487611c9c90919063ffffffff16565b611c9c90919063ffffffff16565b611cb290919063ffffffff16565b9050600160009054906101000a900473ffffffffffffffffffffffffffffffffffffffff1673ffffffffffffffffffffffffffffffffffffffff166340c10f19600260009054906101000a900473ffffffffffffffffffffffffffffffffffffffff16610a73600a85611cb290919063ffffffff16565b6040518363ffffffff1660e01b8152600401610a90929190612963565b600060405180830381600087803b158015610aaa57600080fd5b505af1158015610abe573d6000803e3d6000fd5b50505050600160009054906101000a900473ffffffffffffffffffffffffffffffffffffffff1673ffffffffffffffffffffffffffffffffffffffff166340c10f1930836040518363ffffffff1660e01b8152600401610b1f929190612963565b600060405180830381600087803b158015610b3957600080fd5b505af1158015610b4d573d6000803e3d6000fd5b50505050610b91610b7e84610b7064e8d4a5100085611c9c90919063ffffffff16565b611cb290919063ffffffff16565b8560030154611f8690919063ffffffff16565b8460030181905550438460020181905550505050505b50565b600060058281548110610be6577f4e487b7100000000000000000000000000000000000000000000000000000000600052603260045260246000fd5b9060005260206000209060050201905060006006600084815260200190815260200160002060003373ffffffffffffffffffffffffffffffffffffffff1673ffffffffffffffffffffffffffffffffffffffff16815260200190815260200160002090506000816000015490506000826000018190555060008260010181905550610cb633828560000160009054906101000a900473ffffffffffffffffffffffffffffffffffffffff1673ffffffffffffffffffffffffffffffffffffffff16611f009092919063ffffffff16565b833373ffffffffffffffffffffffffffffffffffffffff167fbb757047c2b5f3974fe26b7c10f732e7bce710b0952a71082702781e62ae059583604051610cfd9190612b5c565b60405180910390a350505050565b6000600580549050905060005b81811015610d3a57610d2981610873565b80610d3390612dca565b9050610d18565b5050565b610d46611c94565b73ffffffffffffffffffffffffffffffffffffffff16610d64611483565b73ffffffffffffffffffffffffffffffffffffffff1614610dba576040517f08c379a0000000000000000000000000000000000000000000000000000000008152600401610db190612abc565b60405180910390fd5b600073ffffffffffffffffffffffffffffffffffffffff1660008054906101000a900473ffffffffffffffffffffffffffffffffffffffff1673ffffffffffffffffffffffffffffffffffffffff167f8be0079c531659141344cd1fd0a4f28419497f9722a3daafe3b4186f6b6457e060405160405180910390a360008060006101000a81548173ffffffffffffffffffffffffffffffffffffffff021916908373ffffffffffffffffffffffffffffffffffffffff160217905550565b60008060058481548110610eb5577f4e487b7100000000000000000000000000000000000000000000000000000000600052603260045260246000fd5b9060005260206000209060050201905060006006600086815260200190815260200160002060008573ffffffffffffffffffffffffffffffffffffffff1673ffffffffffffffffffffffffffffffffffffffff168152602001908152602001600020905060008260030154905060008360000160009054906101000a900473ffffffffffffffffffffffffffffffffffffffff1673ffffffffffffffffffffffffffffffffffffffff166370a08231306040518263ffffffff1660e01b8152600401610f819190612911565b60206040518083038186803b158015610f9957600080fd5b505afa158015610fad573d6000803e3d6000fd5b505050506040513d601f19601f82011682018060405250810190610fd191906123a0565b9050836002015443118015610fe7575060008114155b15611082576000610ffc8560020154436114ac565b9050600061103f600754611031886001015461102360035487611c9c90919063ffffffff16565b611c9c90919063ffffffff16565b611cb290919063ffffffff16565b905061107d61106e8461106064e8d4a5100085611c9c90919063ffffffff16565b611cb290919063ffffffff16565b85611f8690919063ffffffff16565b935050505b6110c683600101546110b864e8d4a510006110aa868860000154611c9c90919063ffffffff16565b611cb290919063ffffffff16565b611cc890919063ffffffff16565b94505050505092915050565b6110da611c94565b73ffffffffffffffffffffffffffffffffffffffff166110f8611483565b73ffffffffffffffffffffffffffffffffffffffff161461114e576040517f08c379a000000000000000000000000000000000000000000000000000000000815260040161114590612abc565b60405180910390fd5b6127108261ffff161115611197576040517f08c379a000000000000000000000000000000000000000000000000000000000815260040161118e90612a1c565b60405180910390fd5b80156111a6576111a5610d0b565b5b600060085443116111b9576008546111bb565b435b90506111d285600754611f8690919063ffffffff16565b60078190555060056040518060a001604052808673ffffffffffffffffffffffffffffffffffffffff168152602001878152602001838152602001600081526020018561ffff16815250908060018154018082558091505060019003906000526020600020906005020160009091909190915060008201518160000160006101000a81548173ffffffffffffffffffffffffffffffffffffffff021916908373ffffffffffffffffffffffffffffffffffffffff16021790555060208201518160010155604082015181600201556060820151816003015560808201518160040160006101000a81548161ffff021916908361ffff16021790555050505050505050565b600460009054906101000a900473ffffffffffffffffffffffffffffffffffffffff1673ffffffffffffffffffffffffffffffffffffffff163373ffffffffffffffffffffffffffffffffffffffff1614611366576040517f08c379a000000000000000000000000000000000000000000000000000000000815260040161135d90612b1c565b60405180910390fd5b80600460006101000a81548173ffffffffffffffffffffffffffffffffffffffff021916908373ffffffffffffffffffffffffffffffffffffffff16021790555050565b600181565b600260009054906101000a900473ffffffffffffffffffffffffffffffffffffffff1673ffffffffffffffffffffffffffffffffffffffff163373ffffffffffffffffffffffffffffffffffffffff161461143f576040517f08c379a000000000000000000000000000000000000000000000000000000000815260040161143690612a7c565b60405180910390fd5b80600260006101000a81548173ffffffffffffffffffffffffffffffffffffffff021916908373ffffffffffffffffffffffffffffffffffffffff16021790555050565b60008060009054906101000a900473ffffffffffffffffffffffffffffffffffffffff16905090565b60006114d460016114c68585611cc890919063ffffffff16565b611c9c90919063ffffffff16565b905092915050565b6006602052816000526040600020602052806000526040600020600091509150508060000154908060010154905082565b600260009054906101000a900473ffffffffffffffffffffffffffffffffffffffff1681565b61153b611c94565b73ffffffffffffffffffffffffffffffffffffffff16611559611483565b73ffffffffffffffffffffffffffffffffffffffff16146115af576040517f08c379a00000000000000000000000000000000000000000000000000000000081526004016115a690612abc565b60405180910390fd5b6127108261ffff1611156115f8576040517f08c379a00000000000000000000000000000000000000000000000000000000081526004016115ef90612a9c565b60405180910390fd5b801561160757611606610d0b565b5b6116798361166b60058781548110611648577f4e487b7100000000000000000000000000000000000000000000000000000000600052603260045260246000fd5b906000526020600020906005020160010154600754611cc890919063ffffffff16565b611f8690919063ffffffff16565b60078190555082600585815481106116ba577f4e487b7100000000000000000000000000000000000000000000000000000000600052603260045260246000fd5b906000526020600020906005020160010181905550816005858154811061170a577f4e487b7100000000000000000000000000000000000000000000000000000000600052603260045260246000fd5b906000526020600020906005020160040160006101000a81548161ffff021916908361ffff16021790555050505050565b600060058381548110611777577f4e487b7100000000000000000000000000000000000000000000000000000000600052603260045260246000fd5b9060005260206000209060050201905060006006600085815260200190815260200160002060003373ffffffffffffffffffffffffffffffffffffffff1673ffffffffffffffffffffffffffffffffffffffff16815260200190815260200160002090506117e484610873565b60008160000154111561185357600061183b826001015461182d64e8d4a5100061181f87600301548760000154611c9c90919063ffffffff16565b611cb290919063ffffffff16565b611cc890919063ffffffff16565b90506000811115611851576118503382611cde565b5b505b60008311156119d6576118ad3330858560000160009054906101000a900473ffffffffffffffffffffffffffffffffffffffff1673ffffffffffffffffffffffffffffffffffffffff16611f9c909392919063ffffffff16565b60008260040160009054906101000a900461ffff1661ffff1611156119b557600061190b6127106118fd8560040160009054906101000a900461ffff1661ffff1687611c9c90919063ffffffff16565b611cb290919063ffffffff16565b905061197e600460009054906101000a900473ffffffffffffffffffffffffffffffffffffffff16828560000160009054906101000a900473ffffffffffffffffffffffffffffffffffffffff1673ffffffffffffffffffffffffffffffffffffffff16611f009092919063ffffffff16565b6119a781611999868560000154611f8690919063ffffffff16565b611cc890919063ffffffff16565b8260000181905550506119d5565b6119cc838260000154611f8690919063ffffffff16565b81600001819055505b5b611a0864e8d4a510006119fa84600301548460000154611c9c90919063ffffffff16565b611cb290919063ffffffff16565b8160010181905550833373ffffffffffffffffffffffffffffffffffffffff167f90890809c654f11d6e72a28fa60149770a0d11ec6c92319d6ceb2bb0a4ea1a1585604051611a579190612b5c565b60405180910390a350505050565b611a6d611c94565b73ffffffffffffffffffffffffffffffffffffffff16611a8b611483565b73ffffffffffffffffffffffffffffffffffffffff1614611ae1576040517f08c379a0000000000000000000000000000000000000000000000000000000008152600401611ad890612abc565b60405180910390fd5b600073ffffffffffffffffffffffffffffffffffffffff168173ffffffffffffffffffffffffffffffffffffffff161415611b51576040517f08c379a0000000000000000000000000000000000000000000000000000000008152600401611b4890612a3c565b60405180910390fd5b8073ffffffffffffffffffffffffffffffffffffffff1660008054906101000a900473ffffffffffffffffffffffffffffffffffffffff1673ffffffffffffffffffffffffffffffffffffffff167f8be0079c531659141344cd1fd0a4f28419497f9722a3daafe3b4186f6b6457e060405160405180910390a3806000806101000a81548173ffffffffffffffffffffffffffffffffffffffff021916908373ffffffffffffffffffffffffffffffffffffffff16021790555050565b611c16611c94565b73ffffffffffffffffffffffffffffffffffffffff16611c34611483565b73ffffffffffffffffffffffffffffffffffffffff1614611c8a576040517f08c379a0000000000000000000000000000000000000000000000000000000008152600401611c8190612abc565b60405180910390fd5b8060088190555050565b600033905090565b60008183611caa9190612c59565b905092915050565b60008183611cc09190612c28565b905092915050565b60008183611cd69190612cb3565b905092915050565b6000600160009054906101000a900473ffffffffffffffffffffffffffffffffffffffff1673ffffffffffffffffffffffffffffffffffffffff166370a08231306040518263ffffffff1660e01b8152600401611d3b9190612911565b60206040518083038186803b158015611d5357600080fd5b505afa158015611d67573d6000803e3d6000fd5b505050506040513d601f19601f82011682018060405250810190611d8b91906123a0565b905080821115611e4a57600160009054906101000a900473ffffffffffffffffffffffffffffffffffffffff1673ffffffffffffffffffffffffffffffffffffffff1663a9059cbb84836040518363ffffffff1660e01b8152600401611df2929190612963565b602060405180830381600087803b158015611e0c57600080fd5b505af1158015611e20573d6000803e3d6000fd5b505050506040513d601f19601f82011682018060405250810190611e44919061234e565b50611efb565b600160009054906101000a900473ffffffffffffffffffffffffffffffffffffffff1673ffffffffffffffffffffffffffffffffffffffff1663a9059cbb84846040518363ffffffff1660e01b8152600401611ea7929190612963565b602060405180830381600087803b158015611ec157600080fd5b505af1158015611ed5573d6000803e3d6000fd5b505050506040513d601f19601f82011682018060405250810190611ef9919061234e565b505b505050565b611f818363a9059cbb60e01b8484604051602401611f1f929190612963565b604051602081830303815290604052907bffffffffffffffffffffffffffffffffffffffffffffffffffffffff19166020820180517bffffffffffffffffffffffffffffffffffffffffffffffffffffffff8381831617835250505050612025565b505050565b60008183611f949190612bd2565b905092915050565b61201f846323b872dd60e01b858585604051602401611fbd9392919061292c565b604051602081830303815290604052907bffffffffffffffffffffffffffffffffffffffffffffffffffffffff19166020820180517bffffffffffffffffffffffffffffffffffffffffffffffffffffffff8381831617835250505050612025565b50505050565b6000612087826040518060400160405280602081526020017f5361666545524332303a206c6f772d6c6576656c2063616c6c206661696c65648152508573ffffffffffffffffffffffffffffffffffffffff166120ec9092919063ffffffff16565b90506000815111156120e757808060200190518101906120a7919061234e565b6120e6576040517f08c379a00000000000000000000000000000000000000000000000000000000081526004016120dd90612b3c565b60405180910390fd5b5b505050565b60606120fb8484600085612104565b90509392505050565b606082471015612149576040517f08c379a000000000000000000000000000000000000000000000000000000000815260040161214090612a5c565b60405180910390fd5b61215285612218565b612191576040517f08c379a000000000000000000000000000000000000000000000000000000000815260040161218890612adc565b60405180910390fd5b6000808673ffffffffffffffffffffffffffffffffffffffff1685876040516121ba91906128fa565b60006040518083038185875af1925050503d80600081146121f7576040519150601f19603f3d011682016040523d82523d6000602084013e6121fc565b606091505b509150915061220c82828661222b565b92505050949350505050565b600080823b905060008111915050919050565b6060831561223b5782905061228b565b60008351111561224e5782518084602001fd5b816040517f08c379a000000000000000000000000000000000000000000000000000000000815260040161228291906129fa565b60405180910390fd5b9392505050565b6000813590506122a181612e82565b92915050565b6000813590506122b681612e99565b92915050565b6000815190506122cb81612e99565b92915050565b6000813590506122e081612eb0565b92915050565b6000813590506122f581612ec7565b92915050565b60008135905061230a81612ede565b92915050565b60008151905061231f81612ede565b92915050565b60006020828403121561233757600080fd5b600061234584828501612292565b91505092915050565b60006020828403121561236057600080fd5b600061236e848285016122bc565b91505092915050565b60006020828403121561238957600080fd5b6000612397848285016122fb565b91505092915050565b6000602082840312156123b257600080fd5b60006123c084828501612310565b91505092915050565b600080604083850312156123dc57600080fd5b60006123ea858286016122fb565b92505060206123fb85828601612292565b9150509250929050565b6000806000806080858703121561241b57600080fd5b6000612429878288016122fb565b945050602061243a878288016122d1565b935050604061244b878288016122e6565b925050606061245c878288016122a7565b91505092959194509250565b6000806040838503121561247b57600080fd5b6000612489858286016122fb565b925050602061249a858286016122fb565b9150509250929050565b600080600080608085870312156124ba57600080fd5b60006124c8878288016122fb565b94505060206124d9878288016122fb565b93505060406124ea878288016122e6565b92505060606124fb878288016122a7565b91505092959194509250565b61251081612ce7565b82525050565b600061252182612ba0565b61252b8185612bb6565b935061253b818560208601612d97565b80840191505092915050565b61255081612d4f565b82525050565b61255f81612d73565b82525050565b600061257082612bab565b61257a8185612bc1565b935061258a818560208601612d97565b61259381612e71565b840191505092915050565b60006125ab602583612bc1565b91507f6164643a20696e76616c6964206465706f73697420666565206261736973207060008301527f6f696e74730000000000000000000000000000000000000000000000000000006020830152604082019050919050565b6000612611602683612bc1565b91507f4f776e61626c653a206e6577206f776e657220697320746865207a65726f206160008301527f64647265737300000000000000000000000000000000000000000000000000006020830152604082019050919050565b6000612677602683612bc1565b91507f416464726573733a20696e73756666696369656e742062616c616e636520666f60008301527f722063616c6c00000000000000000000000000000000000000000000000000006020830152604082019050919050565b60006126dd600983612bc1565b91507f6465763a207775743f00000000000000000000000000000000000000000000006000830152602082019050919050565b600061271d602583612bc1565b91507f7365743a20696e76616c6964206465706f73697420666565206261736973207060008301527f6f696e74730000000000000000000000000000000000000000000000000000006020830152604082019050919050565b6000612783602083612bc1565b91507f4f776e61626c653a2063616c6c6572206973206e6f7420746865206f776e65726000830152602082019050919050565b60006127c3601d83612bc1565b91507f416464726573733a2063616c6c20746f206e6f6e2d636f6e74726163740000006000830152602082019050919050565b6000612803601283612bc1565b91507f77697468647261773a206e6f7420676f6f6400000000000000000000000000006000830152602082019050919050565b6000612843601883612bc1565b91507f736574466565416464726573733a20464f5242494444454e00000000000000006000830152602082019050919050565b6000612883602a83612bc1565b91507f5361666545524332303a204552433230206f7065726174696f6e20646964206e60008301527f6f742073756363656564000000000000000000000000000000000000000000006020830152604082019050919050565b6128e581612d17565b82525050565b6128f481612d45565b82525050565b60006129068284612516565b915081905092915050565b60006020820190506129266000830184612507565b92915050565b60006060820190506129416000830186612507565b61294e6020830185612507565b61295b60408301846128eb565b949350505050565b60006040820190506129786000830185612507565b61298560208301846128eb565b9392505050565b600060a0820190506129a16000830188612547565b6129ae60208301876128eb565b6129bb60408301866128eb565b6129c860608301856128eb565b6129d560808301846128dc565b9695505050505050565b60006020820190506129f46000830184612556565b92915050565b60006020820190508181036000830152612a148184612565565b905092915050565b60006020820190508181036000830152612a358161259e565b9050919050565b60006020820190508181036000830152612a5581612604565b9050919050565b60006020820190508181036000830152612a758161266a565b9050919050565b60006020820190508181036000830152612a95816126d0565b9050919050565b60006020820190508181036000830152612ab581612710565b9050919050565b60006020820190508181036000830152612ad581612776565b9050919050565b60006020820190508181036000830152612af5816127b6565b9050919050565b60006020820190508181036000830152612b15816127f6565b9050919050565b60006020820190508181036000830152612b3581612836565b9050919050565b60006020820190508181036000830152612b5581612876565b9050919050565b6000602082019050612b7160008301846128eb565b92915050565b6000604082019050612b8c60008301856128eb565b612b9960208301846128eb565b9392505050565b600081519050919050565b600081519050919050565b600081905092915050565b600082825260208201905092915050565b6000612bdd82612d45565b9150612be883612d45565b9250827fffffffffffffffffffffffffffffffffffffffffffffffffffffffffffffffff03821115612c1d57612c1c612e13565b5b828201905092915050565b6000612c3382612d45565b9150612c3e83612d45565b925082612c4e57612c4d612e42565b5b828204905092915050565b6000612c6482612d45565b9150612c6f83612d45565b9250817fffffffffffffffffffffffffffffffffffffffffffffffffffffffffffffffff0483118215151615612ca857612ca7612e13565b5b828202905092915050565b6000612cbe82612d45565b9150612cc983612d45565b925082821015612cdc57612cdb612e13565b5b828203905092915050565b6000612cf282612d25565b9050919050565b60008115159050919050565b6000612d1082612ce7565b9050919050565b600061ffff82169050919050565b600073ffffffffffffffffffffffffffffffffffffffff82169050919050565b6000819050919050565b6000612d5a82612d61565b9050919050565b6000612d6c82612d25565b9050919050565b6000612d7e82612d85565b9050919050565b6000612d9082612d25565b9050919050565b60005b83811015612db5578082015181840152602081019050612d9a565b83811115612dc4576000848401525b50505050565b6000612dd582612d45565b91507fffffffffffffffffffffffffffffffffffffffffffffffffffffffffffffffff821415612e0857612e07612e13565b5b600182019050919050565b7f4e487b7100000000000000000000000000000000000000000000000000000000600052601160045260246000fd5b7f4e487b7100000000000000000000000000000000000000000000000000000000600052601260045260246000fd5b6000601f19601f8301169050919050565b612e8b81612ce7565b8114612e9657600080fd5b50565b612ea281612cf9565b8114612ead57600080fd5b50565b612eb981612d05565b8114612ec457600080fd5b50565b612ed081612d17565b8114612edb57600080fd5b50565b612ee781612d45565b8114612ef257600080fd5b5056fea2646970667358221220ddc10b97470c5888ea9f8d43c2981c2e27c16a7ac7d5b629d71fed8416d79e5a64736f6c63430008000033",
  "immutableReferences": {},
  "source": "// SPDX-License-Identifier: MIT\n\npragma solidity 0.8.0;\n\nimport \"@openzeppelin/contracts/utils/math/SafeMath.sol\";\nimport \"@openzeppelin/contracts/token/ERC20/IERC20.sol\";\nimport \"@openzeppelin/contracts/token/ERC20/utils/SafeERC20.sol\";\nimport \"@openzeppelin/contracts/access/Ownable.sol\";\nimport \"./SwiftToken.sol\";\n\n// MasterChef is the master of Swift. He can make Swift and he is a fair guy.\n//\n// Note that it's ownable and the owner wields tremendous power. The ownership\n// will be transferred to a governance smart contract once SWIFT is sufficiently\n// distributed and the community can show to govern itself.\n//\n// Have fun reading it. Hopefully it's bug-free. God bless.\ncontract MasterChef is Ownable {\n    using SafeMath for uint256;\n    using SafeERC20 for IERC20;\n\n    // Info of each user.\n    struct UserInfo {\n        uint256 amount;         // How many LP tokens the user has provided.\n        uint256 rewardDebt;     // Reward debt. See explanation below.\n        //\n        // We do some fancy math here. Basically, any point in time, the amount of Swifts\n        // entitled to a user but is pending to be distributed is:\n        //\n        //   pending reward = (user.amount * pool.accSwiftPerShare) - user.rewardDebt\n        //\n        // Whenever a user deposits or withdraws LP tokens to a pool. Here's what happens:\n        //   1. The pool's `accSwiftPerShare` (and `lastRewardBlock`) gets updated.\n        //   2. User receives the pending reward sent to his/her address.\n        //   3. User's `amount` gets updated.\n        //   4. User's `rewardDebt` gets updated.\n    }\n\n    // Info of each pool.\n    struct PoolInfo {\n        IERC20 lpToken;           // Address of LP token contract.\n        uint256 allocPoint;       // How many allocation points assigned to this pool. SWIFTs to distribute per block.\n        uint256 lastRewardBlock;  // Last block number that SWIFTs distribution occurs.\n        uint256 accSwiftPerShare;   // Accumulated SWIFTs per share, times 1e12. See below.\n        uint16 depositFeeBP;      // Deposit fee in basis points\n    }\n\n    // The SWIFT TOKEN!\n    SwiftToken public swift;\n    // Dev address.\n    address public devaddr;\n    // SWIFT tokens created per block.\n    uint256 public swiftPerBlock;\n    // Bonus muliplier for early swift makers.\n    uint256 public constant BONUS_MULTIPLIER = 1;\n    // Deposit Fee address\n    address public feeAddress;\n\n    // Info of each pool.\n    PoolInfo[] public poolInfo;\n    // Info of each user that stakes LP tokens.\n    mapping (uint256 => mapping (address => UserInfo)) public userInfo;\n    // Total allocation points. Must be the sum of all allocation points in all pools.\n    uint256 public totalAllocPoint = 0;\n    // The block number when SWIFT mining starts.\n    uint256 public startBlock;\n\n    event Deposit(address indexed user, uint256 indexed pid, uint256 amount);\n    event Withdraw(address indexed user, uint256 indexed pid, uint256 amount);\n    event EmergencyWithdraw(address indexed user, uint256 indexed pid, uint256 amount);\n\n    constructor(\n        SwiftToken _swift,\n        address _devaddr,\n        address _feeAddress,\n        uint256 _swiftPerBlock,\n        uint256 _startBlock\n    ){}\n\n    function poolLength() external view returns (uint256) {\n        return poolInfo.length;\n    }\n\n    // Add a new lp to the pool. Can only be called by the owner.\n    // XXX DO NOT add the same LP token more than once. Rewards will be messed up if you do.\n    function add(uint256 _allocPoint, IERC20 _lpToken, uint16 _depositFeeBP, bool _withUpdate) public onlyOwner {\n        require(_depositFeeBP <= 10000, \"add: invalid deposit fee basis points\");\n        if (_withUpdate) {\n            massUpdatePools();\n        }\n        uint256 lastRewardBlock = block.number > startBlock ? block.number : startBlock;\n        totalAllocPoint = totalAllocPoint.add(_allocPoint);\n        poolInfo.push(PoolInfo({\n            lpToken: _lpToken,\n            allocPoint: _allocPoint,\n            lastRewardBlock: lastRewardBlock,\n            accSwiftPerShare: 0,\n            depositFeeBP: _depositFeeBP\n        }));\n    }\n\n    // Update the given pool's SWIFT allocation point and deposit fee. Can only be called by the owner.\n    function set(uint256 _pid, uint256 _allocPoint, uint16 _depositFeeBP, bool _withUpdate) public onlyOwner {\n        require(_depositFeeBP <= 10000, \"set: invalid deposit fee basis points\");\n        if (_withUpdate) {\n            massUpdatePools();\n        }\n        totalAllocPoint = totalAllocPoint.sub(poolInfo[_pid].allocPoint).add(_allocPoint);\n        poolInfo[_pid].allocPoint = _allocPoint;\n        poolInfo[_pid].depositFeeBP = _depositFeeBP;\n    }\n\n    // Return reward multiplier over the given _from to _to block.\n    function getMultiplier(uint256 _from, uint256 _to) public pure returns (uint256) {\n        return _to.sub(_from).mul(BONUS_MULTIPLIER);\n    }\n\n    // View function to see pending SWIFTs on frontend.\n    function pendingSwift(uint256 _pid, address _user) external view returns (uint256) {\n        PoolInfo storage pool = poolInfo[_pid];\n        UserInfo storage user = userInfo[_pid][_user];\n        uint256 accSwiftPerShare = pool.accSwiftPerShare;\n        uint256 lpSupply = pool.lpToken.balanceOf(address(this));\n        if (block.number > pool.lastRewardBlock && lpSupply != 0) {\n            uint256 multiplier = getMultiplier(pool.lastRewardBlock, block.number);\n            uint256 swiftReward = multiplier.mul(swiftPerBlock).mul(pool.allocPoint).div(totalAllocPoint);\n            accSwiftPerShare = accSwiftPerShare.add(swiftReward.mul(1e12).div(lpSupply));\n        }\n        return user.amount.mul(accSwiftPerShare).div(1e12).sub(user.rewardDebt);\n    }\n\n    // Update reward variables for all pools. Be careful of gas spending!\n    function massUpdatePools() public {\n        uint256 length = poolInfo.length;\n        for (uint256 pid = 0; pid < length; ++pid) {\n            updatePool(pid);\n        }\n    }\n\n    // Update reward variables of the given pool to be up-to-date.\n    function updatePool(uint256 _pid) public {\n        PoolInfo storage pool = poolInfo[_pid];\n        if (block.number <= pool.lastRewardBlock) {\n            return;\n        }\n        uint256 lpSupply = pool.lpToken.balanceOf(address(this));\n        if (lpSupply == 0 || pool.allocPoint == 0) {\n            pool.lastRewardBlock = block.number;\n            return;\n        }\n        uint256 multiplier = getMultiplier(pool.lastRewardBlock, block.number);\n        uint256 swiftReward = multiplier.mul(swiftPerBlock).mul(pool.allocPoint).div(totalAllocPoint);\n        swift.mint(devaddr, swiftReward.div(10));\n        swift.mint(address(this), swiftReward);\n        pool.accSwiftPerShare = pool.accSwiftPerShare.add(swiftReward.mul(1e12).div(lpSupply));\n        pool.lastRewardBlock = block.number;\n    }\n\n    // Deposit LP tokens to MasterChef for SWIFT allocation.\n    function deposit(uint256 _pid, uint256 _amount) public {\n        PoolInfo storage pool = poolInfo[_pid];\n        UserInfo storage user = userInfo[_pid][msg.sender];\n        updatePool(_pid);\n        if (user.amount > 0) {\n            uint256 pending = user.amount.mul(pool.accSwiftPerShare).div(1e12).sub(user.rewardDebt);\n            if(pending > 0) {\n                safeSwiftTransfer(msg.sender, pending);\n            }\n        }\n        if(_amount > 0) {\n            pool.lpToken.safeTransferFrom(address(msg.sender), address(this), _amount);\n            if(pool.depositFeeBP > 0){\n                uint256 depositFee = _amount.mul(pool.depositFeeBP).div(10000);\n                pool.lpToken.safeTransfer(feeAddress, depositFee);\n                user.amount = user.amount.add(_amount).sub(depositFee);\n            }else{\n                user.amount = user.amount.add(_amount);\n            }\n        }\n        user.rewardDebt = user.amount.mul(pool.accSwiftPerShare).div(1e12);\n        emit Deposit(msg.sender, _pid, _amount);\n    }\n\n    // Withdraw LP tokens from MasterChef.\n    function withdraw(uint256 _pid, uint256 _amount) public {\n        PoolInfo storage pool = poolInfo[_pid];\n        UserInfo storage user = userInfo[_pid][msg.sender];\n        require(user.amount >= _amount, \"withdraw: not good\");\n        updatePool(_pid);\n        uint256 pending = user.amount.mul(pool.accSwiftPerShare).div(1e12).sub(user.rewardDebt);\n        if(pending > 0) {\n            safeSwiftTransfer(msg.sender, pending);\n        }\n        if(_amount > 0) {\n            user.amount = user.amount.sub(_amount);\n            pool.lpToken.safeTransfer(address(msg.sender), _amount);\n        }\n        user.rewardDebt = user.amount.mul(pool.accSwiftPerShare).div(1e12);\n        emit Withdraw(msg.sender, _pid, _amount);\n    }\n\n    // Withdraw without caring about rewards. EMERGENCY ONLY.\n    function emergencyWithdraw(uint256 _pid) public {\n        PoolInfo storage pool = poolInfo[_pid];\n        UserInfo storage user = userInfo[_pid][msg.sender];\n        uint256 amount = user.amount;\n        user.amount = 0;\n        user.rewardDebt = 0;\n        pool.lpToken.safeTransfer(address(msg.sender), amount);\n        emit EmergencyWithdraw(msg.sender, _pid, amount);\n    }\n\n    // Safe swift transfer function, just in case if rounding error causes pool to not have enough SWIFTs.\n    function safeSwiftTransfer(address _to, uint256 _amount) internal {\n        uint256 swiftBal = swift.balanceOf(address(this));\n        if (_amount > swiftBal) {\n            swift.transfer(_to, swiftBal);\n        } else {\n            swift.transfer(_to, _amount);\n        }\n    }\n\n    // Update dev address by the previous dev.\n    function dev(address _devaddr) public {\n        require(msg.sender == devaddr, \"dev: wut?\");\n        devaddr = _devaddr;\n    }\n\n    function setFeeAddress(address _feeAddress) public{\n        require(msg.sender == feeAddress, \"setFeeAddress: FORBIDDEN\");\n        feeAddress = _feeAddress;\n    }\n\n    //Pancake has to add hidden dummy pools inorder to alter the emission, here we make it simple and transparent to all.\n    function updateEmissionRate(uint256 _swiftPerBlock) public onlyOwner {\n        massUpdatePools();\n        swiftPerBlock = _swiftPerBlock;\n    }\n\n    //Only update before start of farm\n    function updateStartBlock(uint256 _startBlock) public onlyOwner {\n        startBlock = _startBlock;\n    }\n}",
  "sourcePath": "D:/Developer/Matic/swift.finance/swift-contracts/contracts/MasterChef.sol",
  "compiler": {
    "name": "solc",
    "version": "0.8.0+commit.c7dfd78e.Emscripten.clang"
  },
  "schemaVersion": "3.3.4",
  "updatedAt": "2021-05-16T19:04:26.891Z",
  "devdoc": {
    "kind": "dev",
    "methods": {
      "owner()": {
        "details": "Returns the address of the current owner."
      },
      "renounceOwnership()": {
        "details": "Leaves the contract without owner. It will not be possible to call `onlyOwner` functions anymore. Can only be called by the current owner. NOTE: Renouncing ownership will leave the contract without an owner, thereby removing any functionality that is only available to the owner."
      },
      "transferOwnership(address)": {
        "details": "Transfers ownership of the contract to a new account (`newOwner`). Can only be called by the current owner."
      }
    },
    "version": 1
  },
  "userdoc": {
    "kind": "user",
    "methods": {},
    "version": 1
  }
}