{
  "contractName": "SwiftToken",
  "abi": [
    {
      "inputs": [],
      "stateMutability": "nonpayable",
      "type": "constructor"
    },
    {
      "anonymous": false,
      "inputs": [
        {
          "indexed": true,
          "internalType": "address",
          "name": "owner",
          "type": "address"
        },
        {
          "indexed": true,
          "internalType": "address",
          "name": "spender",
          "type": "address"
        },
        {
          "indexed": false,
          "internalType": "uint256",
          "name": "value",
          "type": "uint256"
        }
      ],
      "name": "Approval",
      "type": "event"
    },
    {
      "anonymous": false,
      "inputs": [
        {
          "indexed": true,
          "internalType": "address",
          "name": "to",
          "type": "address"
        },
        {
          "indexed": false,
          "internalType": "uint256",
          "name": "value",
          "type": "uint256"
        }
      ],
      "name": "Lock",
      "type": "event"
    },
    {
      "anonymous": false,
      "inputs": [
        {
          "indexed": true,
          "internalType": "address",
          "name": "newMasterMinter",
          "type": "address"
        }
      ],
      "name": "MasterMinterChanged",
      "type": "event"
    },
    {
      "anonymous": false,
      "inputs": [
        {
          "indexed": true,
          "internalType": "address",
          "name": "minter",
          "type": "address"
        },
        {
          "indexed": false,
          "internalType": "uint256",
          "name": "minterAllowedAmount",
          "type": "uint256"
        }
      ],
      "name": "MinterConfigured",
      "type": "event"
    },
    {
      "anonymous": false,
      "inputs": [
        {
          "indexed": true,
          "internalType": "address",
          "name": "oldMinter",
          "type": "address"
        }
      ],
      "name": "MinterRemoved",
      "type": "event"
    },
    {
      "anonymous": false,
      "inputs": [
        {
          "indexed": true,
          "internalType": "address",
          "name": "previousOwner",
          "type": "address"
        },
        {
          "indexed": true,
          "internalType": "address",
          "name": "newOwner",
          "type": "address"
        }
      ],
      "name": "OwnershipTransferred",
      "type": "event"
    },
    {
      "anonymous": false,
      "inputs": [
        {
          "indexed": true,
          "internalType": "address",
          "name": "from",
          "type": "address"
        },
        {
          "indexed": true,
          "internalType": "address",
          "name": "to",
          "type": "address"
        },
        {
          "indexed": false,
          "internalType": "uint256",
          "name": "value",
          "type": "uint256"
        }
      ],
      "name": "Transfer",
      "type": "event"
    },
    {
      "inputs": [
        {
          "internalType": "address",
          "name": "owner",
          "type": "address"
        },
        {
          "internalType": "address",
          "name": "spender",
          "type": "address"
        }
      ],
      "name": "allowance",
      "outputs": [
        {
          "internalType": "uint256",
          "name": "",
          "type": "uint256"
        }
      ],
      "stateMutability": "view",
      "type": "function"
    },
    {
      "inputs": [
        {
          "internalType": "address",
          "name": "spender",
          "type": "address"
        },
        {
          "internalType": "uint256",
          "name": "amount",
          "type": "uint256"
        }
      ],
      "name": "approve",
      "outputs": [
        {
          "internalType": "bool",
          "name": "",
          "type": "bool"
        }
      ],
      "stateMutability": "nonpayable",
      "type": "function"
    },
    {
      "inputs": [
        {
          "internalType": "address",
          "name": "account",
          "type": "address"
        }
      ],
      "name": "balanceOf",
      "outputs": [
        {
          "internalType": "uint256",
          "name": "",
          "type": "uint256"
        }
      ],
      "stateMutability": "view",
      "type": "function"
    },
    {
      "inputs": [],
      "name": "decimals",
      "outputs": [
        {
          "internalType": "uint8",
          "name": "",
          "type": "uint8"
        }
      ],
      "stateMutability": "view",
      "type": "function"
    },
    {
      "inputs": [
        {
          "internalType": "address",
          "name": "spender",
          "type": "address"
        },
        {
          "internalType": "uint256",
          "name": "subtractedValue",
          "type": "uint256"
        }
      ],
      "name": "decreaseAllowance",
      "outputs": [
        {
          "internalType": "bool",
          "name": "",
          "type": "bool"
        }
      ],
      "stateMutability": "nonpayable",
      "type": "function"
    },
    {
      "inputs": [],
      "name": "farmingEnabled",
      "outputs": [
        {
          "internalType": "bool",
          "name": "",
          "type": "bool"
        }
      ],
      "stateMutability": "view",
      "type": "function"
    },
    {
      "inputs": [
        {
          "internalType": "address",
          "name": "spender",
          "type": "address"
        },
        {
          "internalType": "uint256",
          "name": "addedValue",
          "type": "uint256"
        }
      ],
      "name": "increaseAllowance",
      "outputs": [
        {
          "internalType": "bool",
          "name": "",
          "type": "bool"
        }
      ],
      "stateMutability": "nonpayable",
      "type": "function"
    },
    {
      "inputs": [],
      "name": "lockFromBlock",
      "outputs": [
        {
          "internalType": "uint256",
          "name": "",
          "type": "uint256"
        }
      ],
      "stateMutability": "view",
      "type": "function"
    },
    {
      "inputs": [],
      "name": "lockToBlock",
      "outputs": [
        {
          "internalType": "uint256",
          "name": "",
          "type": "uint256"
        }
      ],
      "stateMutability": "view",
      "type": "function"
    },
    {
      "inputs": [],
      "name": "masterMinter",
      "outputs": [
        {
          "internalType": "address",
          "name": "",
          "type": "address"
        }
      ],
      "stateMutability": "view",
      "type": "function"
    },
    {
      "inputs": [],
      "name": "mintersLength_",
      "outputs": [
        {
          "internalType": "uint256",
          "name": "",
          "type": "uint256"
        }
      ],
      "stateMutability": "view",
      "type": "function"
    },
    {
      "inputs": [],
      "name": "name",
      "outputs": [
        {
          "internalType": "string",
          "name": "",
          "type": "string"
        }
      ],
      "stateMutability": "view",
      "type": "function"
    },
    {
      "inputs": [],
      "name": "owner",
      "outputs": [
        {
          "internalType": "address",
          "name": "",
          "type": "address"
        }
      ],
      "stateMutability": "view",
      "type": "function"
    },
    {
      "inputs": [],
      "name": "renounceOwnership",
      "outputs": [],
      "stateMutability": "nonpayable",
      "type": "function"
    },
    {
      "inputs": [],
      "name": "symbol",
      "outputs": [
        {
          "internalType": "string",
          "name": "",
          "type": "string"
        }
      ],
      "stateMutability": "view",
      "type": "function"
    },
    {
      "inputs": [],
      "name": "totalSupply",
      "outputs": [
        {
          "internalType": "uint256",
          "name": "",
          "type": "uint256"
        }
      ],
      "stateMutability": "view",
      "type": "function"
    },
    {
      "inputs": [
        {
          "internalType": "address",
          "name": "recipient",
          "type": "address"
        },
        {
          "internalType": "uint256",
          "name": "amount",
          "type": "uint256"
        }
      ],
      "name": "transfer",
      "outputs": [
        {
          "internalType": "bool",
          "name": "",
          "type": "bool"
        }
      ],
      "stateMutability": "nonpayable",
      "type": "function"
    },
    {
      "inputs": [],
      "name": "transferBurnRate",
      "outputs": [
        {
          "internalType": "uint256",
          "name": "",
          "type": "uint256"
        }
      ],
      "stateMutability": "view",
      "type": "function"
    },
    {
      "inputs": [
        {
          "internalType": "address",
          "name": "sender",
          "type": "address"
        },
        {
          "internalType": "address",
          "name": "recipient",
          "type": "address"
        },
        {
          "internalType": "uint256",
          "name": "amount",
          "type": "uint256"
        }
      ],
      "name": "transferFrom",
      "outputs": [
        {
          "internalType": "bool",
          "name": "",
          "type": "bool"
        }
      ],
      "stateMutability": "nonpayable",
      "type": "function"
    },
    {
      "inputs": [
        {
          "internalType": "address",
          "name": "newOwner",
          "type": "address"
        }
      ],
      "name": "transferOwnership",
      "outputs": [],
      "stateMutability": "nonpayable",
      "type": "function"
    },
    {
      "inputs": [],
      "name": "cap",
      "outputs": [
        {
          "internalType": "uint256",
          "name": "",
          "type": "uint256"
        }
      ],
      "stateMutability": "view",
      "type": "function"
    },
    {
      "inputs": [],
      "name": "circulatingSupply",
      "outputs": [
        {
          "internalType": "uint256",
          "name": "",
          "type": "uint256"
        }
      ],
      "stateMutability": "view",
      "type": "function"
    },
    {
      "inputs": [],
      "name": "totalLock",
      "outputs": [
        {
          "internalType": "uint256",
          "name": "",
          "type": "uint256"
        }
      ],
      "stateMutability": "view",
      "type": "function"
    },
    {
      "inputs": [
        {
          "internalType": "address",
          "name": "_to",
          "type": "address"
        },
        {
          "internalType": "uint256",
          "name": "_amount",
          "type": "uint256"
        }
      ],
      "name": "mint",
      "outputs": [],
      "stateMutability": "nonpayable",
      "type": "function"
    },
    {
      "inputs": [
        {
          "internalType": "address",
          "name": "_holder",
          "type": "address"
        }
      ],
      "name": "totalBalanceOf",
      "outputs": [
        {
          "internalType": "uint256",
          "name": "",
          "type": "uint256"
        }
      ],
      "stateMutability": "view",
      "type": "function"
    },
    {
      "inputs": [
        {
          "internalType": "address",
          "name": "_holder",
          "type": "address"
        }
      ],
      "name": "lockOf",
      "outputs": [
        {
          "internalType": "uint256",
          "name": "",
          "type": "uint256"
        }
      ],
      "stateMutability": "view",
      "type": "function"
    },
    {
      "inputs": [
        {
          "internalType": "address",
          "name": "_holder",
          "type": "address"
        }
      ],
      "name": "lastUnlockBlock",
      "outputs": [
        {
          "internalType": "uint256",
          "name": "",
          "type": "uint256"
        }
      ],
      "stateMutability": "view",
      "type": "function"
    },
    {
      "inputs": [
        {
          "internalType": "address",
          "name": "_holder",
          "type": "address"
        },
        {
          "internalType": "uint256",
          "name": "_amount",
          "type": "uint256"
        }
      ],
      "name": "lock",
      "outputs": [],
      "stateMutability": "nonpayable",
      "type": "function"
    },
    {
      "inputs": [
        {
          "internalType": "address",
          "name": "_holder",
          "type": "address"
        }
      ],
      "name": "canUnlockAmount",
      "outputs": [
        {
          "internalType": "uint256",
          "name": "",
          "type": "uint256"
        }
      ],
      "stateMutability": "view",
      "type": "function"
    },
    {
      "inputs": [],
      "name": "unlock",
      "outputs": [],
      "stateMutability": "nonpayable",
      "type": "function"
    },
    {
      "inputs": [
        {
          "internalType": "address",
          "name": "_to",
          "type": "address"
        }
      ],
      "name": "transferAll",
      "outputs": [],
      "stateMutability": "nonpayable",
      "type": "function"
    },
    {
      "inputs": [
        {
          "internalType": "uint256",
          "name": "amount",
          "type": "uint256"
        }
      ],
      "name": "burn",
      "outputs": [
        {
          "internalType": "bool",
          "name": "",
          "type": "bool"
        }
      ],
      "stateMutability": "nonpayable",
      "type": "function"
    },
    {
      "inputs": [
        {
          "internalType": "address",
          "name": "account",
          "type": "address"
        },
        {
          "internalType": "uint256",
          "name": "amount",
          "type": "uint256"
        }
      ],
      "name": "burnFrom",
      "outputs": [
        {
          "internalType": "bool",
          "name": "",
          "type": "bool"
        }
      ],
      "stateMutability": "nonpayable",
      "type": "function"
    },
    {
      "inputs": [
        {
          "internalType": "address",
          "name": "_transferBurnAddress",
          "type": "address"
        }
      ],
      "name": "addTransferBurnAddress",
      "outputs": [],
      "stateMutability": "nonpayable",
      "type": "function"
    },
    {
      "inputs": [
        {
          "internalType": "address",
          "name": "_transferBurnAddress",
          "type": "address"
        }
      ],
      "name": "removeTransferBurnAddress",
      "outputs": [],
      "stateMutability": "nonpayable",
      "type": "function"
    },
    {
      "inputs": [
        {
          "internalType": "address",
          "name": "minter",
          "type": "address"
        },
        {
          "internalType": "uint256",
          "name": "minterAllowedAmount",
          "type": "uint256"
        }
      ],
      "name": "configureMinter",
      "outputs": [],
      "stateMutability": "nonpayable",
      "type": "function"
    },
    {
      "inputs": [
        {
          "internalType": "address",
          "name": "minter",
          "type": "address"
        }
      ],
      "name": "removeMinter",
      "outputs": [],
      "stateMutability": "nonpayable",
      "type": "function"
    },
    {
      "inputs": [
        {
          "internalType": "address",
          "name": "_newMasterMinter",
          "type": "address"
        }
      ],
      "name": "updateMasterMinter",
      "outputs": [],
      "stateMutability": "nonpayable",
      "type": "function"
    },
    {
      "inputs": [
        {
          "internalType": "uint256",
          "name": "numblock",
          "type": "uint256"
        }
      ],
      "name": "startFarming",
      "outputs": [],
      "stateMutability": "nonpayable",
      "type": "function"
    }
  ],
  "bytecode": "0x60806040526a52b7d2dcc80cd2e40000006006553480156200002057600080fd5b506040518060400160405280600a81526020017f5377696674546f6b656e000000000000000000000000000000000000000000008152506040518060400160405280600581526020017f53574946540000000000000000000000000000000000000000000000000000008152508160039080519060200190620000a5929190620001b9565b508060049080519060200190620000be929190620001b9565b5050506000620000d3620001b160201b60201c565b905080600560006101000a81548173ffffffffffffffffffffffffffffffffffffffff021916908373ffffffffffffffffffffffffffffffffffffffff1602179055508073ffffffffffffffffffffffffffffffffffffffff16600073ffffffffffffffffffffffffffffffffffffffff167f8be0079c531659141344cd1fd0a4f28419497f9722a3daafe3b4186f6b6457e060405160405180910390a350633b9ac9ff600881905550633b9ac9ff6009819055506000600b60006101000a81548160ff0219169083151502179055506002600a81905550620002ce565b600033905090565b828054620001c79062000269565b90600052602060002090601f016020900481019282620001eb576000855562000237565b82601f106200020657805160ff191683800117855562000237565b8280016001018555821562000237579182015b828111156200023657825182559160200191906001019062000219565b5b5090506200024691906200024a565b5090565b5b80821115620002655760008160009055506001016200024b565b5090565b600060028204905060018216806200028257607f821691505b602082108114156200029957620002986200029f565b5b50919050565b7f4e487b7100000000000000000000000000000000000000000000000000000000600052602260045260246000fd5b61392180620002de6000396000f3fe608060405234801561001057600080fd5b506004361061023d5760003560e01c8063629109051161013b57806395d89b41116100b8578063aa20e1e41161007c578063aa20e1e4146106e0578063b397eaeb146106fc578063cecf757a1461071a578063dd62ed3e14610736578063f2fde38b146107665761023d565b806395d89b411461063c578063a3a7e7f31461065a578063a457c2d714610676578063a69df4b5146106a6578063a9059cbb146106b05761023d565b806389a2867c116100ff57806389a2867c146105965780638da5cb5b146105c65780638e875e1a146105e45780638fe8cf24146106025780639358928b1461061e5761023d565b806362910905146104f057806366fc237b1461050e57806370a082311461052c578063715018a61461055c57806379cc6790146105665761023d565b8063355274ea116101c957806342966c681161018d57806342966c68146104265780634b0ee02a146104565780634e44d9561461048657806354ec3f13146104a25780635a46d3b5146104c05761023d565b8063355274ea1461038057806335d99f351461039e57806339509351146103bc5780633a1aae35146103ec57806340c10f191461040a5761023d565b8063202b176011610210578063202b1760146102ca57806323b872dd146102fa578063282d3fdf1461032a5780633092afd514610346578063313ce567146103625761023d565b806306fdde0314610242578063086bd61714610260578063095ea7b31461027c57806318160ddd146102ac575b600080fd5b61024a610782565b60405161025791906133bc565b60405180910390f35b61027a60048036038101906102759190612c16565b610814565b005b61029660048036038101906102919190612cca565b6108eb565b6040516102a391906133a1565b60405180910390f35b6102b4610909565b6040516102c191906135fe565b60405180910390f35b6102e460048036038101906102df9190612c16565b610913565b6040516102f191906135fe565b60405180910390f35b610314600480360381019061030f9190612c7b565b610a78565b60405161032191906133a1565b60405180910390f35b610344600480360381019061033f9190612cca565b610b79565b005b610360600480360381019061035b9190612c16565b610e3f565b005b61036a610fe9565b6040516103779190613619565b60405180910390f35b610388610ff2565b60405161039591906135fe565b60405180910390f35b6103a6610ffc565b6040516103b39190613386565b60405180910390f35b6103d660048036038101906103d19190612cca565b611022565b6040516103e391906133a1565b60405180910390f35b6103f46110ce565b60405161040191906135fe565b60405180910390f35b610424600480360381019061041f9190612cca565b6110d8565b005b610440600480360381019061043b9190612d06565b611228565b60405161044d91906133a1565b60405180910390f35b610470600480360381019061046b9190612c16565b611244565b60405161047d91906135fe565b60405180910390f35b6104a0600480360381019061049b9190612cca565b6112a0565b005b6104aa611463565b6040516104b791906135fe565b60405180910390f35b6104da60048036038101906104d59190612c16565b611469565b6040516104e791906135fe565b60405180910390f35b6104f86114b2565b60405161050591906133a1565b60405180910390f35b6105166114c5565b60405161052391906135fe565b60405180910390f35b61054660048036038101906105419190612c16565b6114cb565b60405161055391906135fe565b60405180910390f35b610564611513565b005b610580600480360381019061057b9190612cca565b611650565b60405161058d91906133a1565b60405180910390f35b6105b060048036038101906105ab9190612c16565b611698565b6040516105bd91906135fe565b60405180910390f35b6105ce6116e1565b6040516105db9190613386565b60405180910390f35b6105ec61170b565b6040516105f991906135fe565b60405180910390f35b61061c60048036038101906106179190612c16565b611711565b005b6106266117df565b60405161063391906135fe565b60405180910390f35b6106446117fb565b60405161065191906133bc565b60405180910390f35b610674600480360381019061066f9190612c16565b61188d565b005b610690600480360381019061068b9190612cca565b611b94565b60405161069d91906133a1565b60405180910390f35b6106ae611c88565b005b6106ca60048036038101906106c59190612cca565b611e27565b6040516106d791906133a1565b60405180910390f35b6106fa60048036038101906106f59190612c16565b611e45565b005b610704611fa4565b60405161071191906135fe565b60405180910390f35b610734600480360381019061072f9190612d06565b611faa565b005b610750600480360381019061074b9190612c3f565b6120b5565b60405161075d91906135fe565b60405180910390f35b610780600480360381019061077b9190612c16565b61213c565b005b606060038054610791906137ed565b80601f01602080910402602001604051908101604052809291908181526020018280546107bd906137ed565b801561080a5780601f106107df5761010080835404028352916020019161080a565b820191906000526020600020905b8154815290600101906020018083116107ed57829003601f168201915b5050505050905090565b61081c6122e8565b73ffffffffffffffffffffffffffffffffffffffff1661083a6116e1565b73ffffffffffffffffffffffffffffffffffffffff1614610890576040517f08c379a0000000000000000000000000000000000000000000000000000000008152600401610887906134be565b60405180910390fd5b6001601160008373ffffffffffffffffffffffffffffffffffffffff1673ffffffffffffffffffffffffffffffffffffffff16815260200190815260200160002060006101000a81548160ff02191690831515021790555050565b60006108ff6108f86122e8565b84846122f0565b6001905092915050565b6000600254905090565b60006008544310156109285760009050610a73565b600954431061097857601060008373ffffffffffffffffffffffffffffffffffffffff1673ffffffffffffffffffffffffffffffffffffffff168152602001908152602001600020549050610a73565b6000601260008473ffffffffffffffffffffffffffffffffffffffff1673ffffffffffffffffffffffffffffffffffffffff16815260200190815260200160002054436109c59190613731565b90506000601260008573ffffffffffffffffffffffffffffffffffffffff1673ffffffffffffffffffffffffffffffffffffffff16815260200190815260200160002054600954610a169190613731565b90508082601060008773ffffffffffffffffffffffffffffffffffffffff1673ffffffffffffffffffffffffffffffffffffffff16815260200190815260200160002054610a6491906136d7565b610a6e91906136a6565b925050505b919050565b6000610a858484846124bb565b6000600160008673ffffffffffffffffffffffffffffffffffffffff1673ffffffffffffffffffffffffffffffffffffffff1681526020019081526020016000206000610ad06122e8565b73ffffffffffffffffffffffffffffffffffffffff1673ffffffffffffffffffffffffffffffffffffffff16815260200190815260200160002054905082811015610b50576040517f08c379a0000000000000000000000000000000000000000000000000000000008152600401610b479061349e565b60405180910390fd5b610b6d85610b5c6122e8565b8584610b689190613731565b6122f0565b60019150509392505050565b610b816122e8565b73ffffffffffffffffffffffffffffffffffffffff16610b9f6116e1565b73ffffffffffffffffffffffffffffffffffffffff1614610bf5576040517f08c379a0000000000000000000000000000000000000000000000000000000008152600401610bec906134be565b60405180910390fd5b600073ffffffffffffffffffffffffffffffffffffffff168273ffffffffffffffffffffffffffffffffffffffff161415610c65576040517f08c379a0000000000000000000000000000000000000000000000000000000008152600401610c5c9061359e565b60405180910390fd5b610c6e826114cb565b811115610cb0576040517f08c379a0000000000000000000000000000000000000000000000000000000008152600401610ca7906133de565b60405180910390fd5b610cbb8230836124bb565b80601060008473ffffffffffffffffffffffffffffffffffffffff1673ffffffffffffffffffffffffffffffffffffffff16815260200190815260200160002054610d069190613650565b601060008473ffffffffffffffffffffffffffffffffffffffff1673ffffffffffffffffffffffffffffffffffffffff1681526020019081526020016000208190555080600754610d579190613650565b600781905550600854601260008473ffffffffffffffffffffffffffffffffffffffff1673ffffffffffffffffffffffffffffffffffffffff168152602001908152602001600020541015610ded57600854601260008473ffffffffffffffffffffffffffffffffffffffff1673ffffffffffffffffffffffffffffffffffffffff168152602001908152602001600020819055505b8173ffffffffffffffffffffffffffffffffffffffff167f625fed9875dada8643f2418b838ae0bc78d9a148a18eee4ee1979ff0f3f5d42782604051610e3391906135fe565b60405180910390a25050565b600e60009054906101000a900473ffffffffffffffffffffffffffffffffffffffff1673ffffffffffffffffffffffffffffffffffffffff163373ffffffffffffffffffffffffffffffffffffffff1614610e9957600080fd5b600c60008273ffffffffffffffffffffffffffffffffffffffff1673ffffffffffffffffffffffffffffffffffffffff16815260200190815260200160002060009054906101000a900460ff1615610fe6576001600f6000828254610efe9190613731565b925050819055506000600c60008373ffffffffffffffffffffffffffffffffffffffff1673ffffffffffffffffffffffffffffffffffffffff16815260200190815260200160002060006101000a81548160ff0219169083151502179055506000600d60008373ffffffffffffffffffffffffffffffffffffffff1673ffffffffffffffffffffffffffffffffffffffff168152602001908152602001600020819055508073ffffffffffffffffffffffffffffffffffffffff167fe94479a9f7e1952cc78f2d6baab678adc1b772d936c6583def489e524cb6669260405160405180910390a25b50565b60006012905090565b6000600654905090565b600e60009054906101000a900473ffffffffffffffffffffffffffffffffffffffff1681565b60006110c461102f6122e8565b84846001600061103d6122e8565b73ffffffffffffffffffffffffffffffffffffffff1673ffffffffffffffffffffffffffffffffffffffff16815260200190815260200160002060008873ffffffffffffffffffffffffffffffffffffffff1673ffffffffffffffffffffffffffffffffffffffff168152602001908152602001600020546110bf9190613650565b6122f0565b6001905092915050565b6000600754905090565b600e60009054906101000a900473ffffffffffffffffffffffffffffffffffffffff1673ffffffffffffffffffffffffffffffffffffffff163373ffffffffffffffffffffffffffffffffffffffff161461113257600080fd5b600073ffffffffffffffffffffffffffffffffffffffff168273ffffffffffffffffffffffffffffffffffffffff16141561116c57600080fd5b6000811161117957600080fd5b6000600d60008473ffffffffffffffffffffffffffffffffffffffff1673ffffffffffffffffffffffffffffffffffffffff168152602001908152602001600020549050808211156111ca57600080fd5b81816111d69190613731565b600d60008573ffffffffffffffffffffffffffffffffffffffff1673ffffffffffffffffffffffffffffffffffffffff1681526020019081526020016000208190555061122383836125a3565b505050565b600061123b6112356122e8565b836126f7565b60019050919050565b600061124f826114cb565b601060008473ffffffffffffffffffffffffffffffffffffffff1673ffffffffffffffffffffffffffffffffffffffff168152602001908152602001600020546112999190613650565b9050919050565b600e60009054906101000a900473ffffffffffffffffffffffffffffffffffffffff1673ffffffffffffffffffffffffffffffffffffffff163373ffffffffffffffffffffffffffffffffffffffff16146112fa57600080fd5b6002600f541061130957600080fd5b600c60008373ffffffffffffffffffffffffffffffffffffffff1673ffffffffffffffffffffffffffffffffffffffff16815260200190815260200160002060009054906101000a900460ff1661145f576001600c60008473ffffffffffffffffffffffffffffffffffffffff1673ffffffffffffffffffffffffffffffffffffffff16815260200190815260200160002060006101000a81548160ff02191690831515021790555080600d60008473ffffffffffffffffffffffffffffffffffffffff1673ffffffffffffffffffffffffffffffffffffffff168152602001908152602001600020819055506001600f60008282546114099190613650565b925050819055508173ffffffffffffffffffffffffffffffffffffffff167f46980fca912ef9bcdbd36877427b6b90e860769f604e89c0e67720cece530d208260405161145691906135fe565b60405180910390a25b5050565b600a5481565b6000601060008373ffffffffffffffffffffffffffffffffffffffff1673ffffffffffffffffffffffffffffffffffffffff168152602001908152602001600020549050919050565b600b60009054906101000a900460ff1681565b60085481565b60008060008373ffffffffffffffffffffffffffffffffffffffff1673ffffffffffffffffffffffffffffffffffffffff168152602001908152602001600020549050919050565b61151b6122e8565b73ffffffffffffffffffffffffffffffffffffffff166115396116e1565b73ffffffffffffffffffffffffffffffffffffffff161461158f576040517f08c379a0000000000000000000000000000000000000000000000000000000008152600401611586906134be565b60405180910390fd5b600073ffffffffffffffffffffffffffffffffffffffff16600560009054906101000a900473ffffffffffffffffffffffffffffffffffffffff1673ffffffffffffffffffffffffffffffffffffffff167f8be0079c531659141344cd1fd0a4f28419497f9722a3daafe3b4186f6b6457e060405160405180910390a36000600560006101000a81548173ffffffffffffffffffffffffffffffffffffffff021916908373ffffffffffffffffffffffffffffffffffffffff160217905550565b60008082611665856116606122e8565b6120b5565b61166f9190613731565b90506116838461167d6122e8565b836122f0565b61168d84846126f7565b600191505092915050565b6000601260008373ffffffffffffffffffffffffffffffffffffffff1673ffffffffffffffffffffffffffffffffffffffff168152602001908152602001600020549050919050565b6000600560009054906101000a900473ffffffffffffffffffffffffffffffffffffffff16905090565b60095481565b6117196122e8565b73ffffffffffffffffffffffffffffffffffffffff166117376116e1565b73ffffffffffffffffffffffffffffffffffffffff161461178d576040517f08c379a0000000000000000000000000000000000000000000000000000000008152600401611784906134be565b60405180910390fd5b601160008273ffffffffffffffffffffffffffffffffffffffff1673ffffffffffffffffffffffffffffffffffffffff16815260200190815260200160002060006101000a81549060ff021916905550565b60006007546117ec610909565b6117f69190613731565b905090565b60606004805461180a906137ed565b80601f0160208091040260200160405190810160405280929190818152602001828054611836906137ed565b80156118835780601f1061185857610100808354040283529160200191611883565b820191906000526020600020905b81548152906001019060200180831161186657829003601f168201915b5050505050905090565b601060003373ffffffffffffffffffffffffffffffffffffffff1673ffffffffffffffffffffffffffffffffffffffff16815260200190815260200160002054601060008373ffffffffffffffffffffffffffffffffffffffff1673ffffffffffffffffffffffffffffffffffffffff168152602001908152602001600020546119179190613650565b601060008373ffffffffffffffffffffffffffffffffffffffff1673ffffffffffffffffffffffffffffffffffffffff16815260200190815260200160002081905550600854601260008373ffffffffffffffffffffffffffffffffffffffff1673ffffffffffffffffffffffffffffffffffffffff1681526020019081526020016000205410156119ea57600854601260008373ffffffffffffffffffffffffffffffffffffffff1673ffffffffffffffffffffffffffffffffffffffff168152602001908152602001600020819055505b601260003373ffffffffffffffffffffffffffffffffffffffff1673ffffffffffffffffffffffffffffffffffffffff16815260200190815260200160002054601260008373ffffffffffffffffffffffffffffffffffffffff1673ffffffffffffffffffffffffffffffffffffffff168152602001908152602001600020541015611af457601260003373ffffffffffffffffffffffffffffffffffffffff1673ffffffffffffffffffffffffffffffffffffffff16815260200190815260200160002054601260008373ffffffffffffffffffffffffffffffffffffffff1673ffffffffffffffffffffffffffffffffffffffff168152602001908152602001600020819055505b6000601060003373ffffffffffffffffffffffffffffffffffffffff1673ffffffffffffffffffffffffffffffffffffffff168152602001908152602001600020819055506000601260003373ffffffffffffffffffffffffffffffffffffffff1673ffffffffffffffffffffffffffffffffffffffff16815260200190815260200160002081905550611b913382611b8c336114cb565b6124bb565b50565b60008060016000611ba36122e8565b73ffffffffffffffffffffffffffffffffffffffff1673ffffffffffffffffffffffffffffffffffffffff16815260200190815260200160002060008573ffffffffffffffffffffffffffffffffffffffff1673ffffffffffffffffffffffffffffffffffffffff16815260200190815260200160002054905082811015611c60576040517f08c379a0000000000000000000000000000000000000000000000000000000008152600401611c57906135be565b60405180910390fd5b611c7d611c6b6122e8565b858584611c789190613731565b6122f0565b600191505092915050565b6000601060003373ffffffffffffffffffffffffffffffffffffffff1673ffffffffffffffffffffffffffffffffffffffff1681526020019081526020016000205411611d0a576040517f08c379a0000000000000000000000000000000000000000000000000000000008152600401611d01906134de565b60405180910390fd5b6000611d1533610913565b9050611d20306114cb565b811115611d3357611d30306114cb565b90505b611d3e3033836124bb565b80601060003373ffffffffffffffffffffffffffffffffffffffff1673ffffffffffffffffffffffffffffffffffffffff16815260200190815260200160002054611d899190613731565b601060003373ffffffffffffffffffffffffffffffffffffffff1673ffffffffffffffffffffffffffffffffffffffff1681526020019081526020016000208190555043601260003373ffffffffffffffffffffffffffffffffffffffff1673ffffffffffffffffffffffffffffffffffffffff1681526020019081526020016000208190555080600754611e1e9190613731565b60078190555050565b6000611e3b611e346122e8565b84846124bb565b6001905092915050565b611e4d6122e8565b73ffffffffffffffffffffffffffffffffffffffff16611e6b6116e1565b73ffffffffffffffffffffffffffffffffffffffff1614611ec1576040517f08c379a0000000000000000000000000000000000000000000000000000000008152600401611eb8906134be565b60405180910390fd5b600073ffffffffffffffffffffffffffffffffffffffff168173ffffffffffffffffffffffffffffffffffffffff161415611efb57600080fd5b80600e60006101000a81548173ffffffffffffffffffffffffffffffffffffffff021916908373ffffffffffffffffffffffffffffffffffffffff160217905550600e60009054906101000a900473ffffffffffffffffffffffffffffffffffffffff1673ffffffffffffffffffffffffffffffffffffffff167fdb66dfa9c6b8f5226fe9aac7e51897ae8ee94ac31dc70bb6c9900b2574b707e660405160405180910390a250565b600f5481565b611fb26122e8565b73ffffffffffffffffffffffffffffffffffffffff16611fd06116e1565b73ffffffffffffffffffffffffffffffffffffffff1614612026576040517f08c379a000000000000000000000000000000000000000000000000000000000815260040161201d906134be565b60405180910390fd5b60001515600b60009054906101000a900460ff1615151461207c576040517f08c379a00000000000000000000000000000000000000000000000000000000081526004016120739061351e565b60405180910390fd5b43600881905550806008546120919190613650565b6009819055506001600b60006101000a81548160ff02191690831515021790555050565b6000600160008473ffffffffffffffffffffffffffffffffffffffff1673ffffffffffffffffffffffffffffffffffffffff16815260200190815260200160002060008373ffffffffffffffffffffffffffffffffffffffff1673ffffffffffffffffffffffffffffffffffffffff16815260200190815260200160002054905092915050565b6121446122e8565b73ffffffffffffffffffffffffffffffffffffffff166121626116e1565b73ffffffffffffffffffffffffffffffffffffffff16146121b8576040517f08c379a00000000000000000000000000000000000000000000000000000000081526004016121af906134be565b60405180910390fd5b600073ffffffffffffffffffffffffffffffffffffffff168173ffffffffffffffffffffffffffffffffffffffff161415612228576040517f08c379a000000000000000000000000000000000000000000000000000000000815260040161221f9061343e565b60405180910390fd5b8073ffffffffffffffffffffffffffffffffffffffff16600560009054906101000a900473ffffffffffffffffffffffffffffffffffffffff1673ffffffffffffffffffffffffffffffffffffffff167f8be0079c531659141344cd1fd0a4f28419497f9722a3daafe3b4186f6b6457e060405160405180910390a380600560006101000a81548173ffffffffffffffffffffffffffffffffffffffff021916908373ffffffffffffffffffffffffffffffffffffffff16021790555050565b600033905090565b600073ffffffffffffffffffffffffffffffffffffffff168373ffffffffffffffffffffffffffffffffffffffff161415612360576040517f08c379a00000000000000000000000000000000000000000000000000000000081526004016123579061357e565b60405180910390fd5b600073ffffffffffffffffffffffffffffffffffffffff168273ffffffffffffffffffffffffffffffffffffffff1614156123d0576040517f08c379a00000000000000000000000000000000000000000000000000000000081526004016123c79061345e565b60405180910390fd5b80600160008573ffffffffffffffffffffffffffffffffffffffff1673ffffffffffffffffffffffffffffffffffffffff16815260200190815260200160002060008473ffffffffffffffffffffffffffffffffffffffff1673ffffffffffffffffffffffffffffffffffffffff168152602001908152602001600020819055508173ffffffffffffffffffffffffffffffffffffffff168373ffffffffffffffffffffffffffffffffffffffff167f8c5be1e5ebec7d5bd14f71427d1e84f3dd0314c0f7b2291e5b200ac8c7c3b925836040516124ae91906135fe565b60405180910390a3505050565b6000600a5411801561251d575060011515601160008473ffffffffffffffffffffffffffffffffffffffff1673ffffffffffffffffffffffffffffffffffffffff16815260200190815260200160002060009054906101000a900460ff161515145b80156125565750600073ffffffffffffffffffffffffffffffffffffffff168273ffffffffffffffffffffffffffffffffffffffff1614155b156125935760006064600a548361256d91906136d7565b61257791906136a6565b905061258384826126f7565b808261258f9190613731565b9150505b61259e8383836128cb565b505050565b600073ffffffffffffffffffffffffffffffffffffffff168273ffffffffffffffffffffffffffffffffffffffff161415612613576040517f08c379a000000000000000000000000000000000000000000000000000000000815260040161260a906135de565b60405180910390fd5b61261f60008383612b4a565b80600260008282546126319190613650565b92505081905550806000808473ffffffffffffffffffffffffffffffffffffffff1673ffffffffffffffffffffffffffffffffffffffff16815260200190815260200160002060008282546126869190613650565b925050819055508173ffffffffffffffffffffffffffffffffffffffff16600073ffffffffffffffffffffffffffffffffffffffff167fddf252ad1be2c89b69c2b068fc378daa952ba7f163c4a11628f55a4df523b3ef836040516126eb91906135fe565b60405180910390a35050565b600073ffffffffffffffffffffffffffffffffffffffff168273ffffffffffffffffffffffffffffffffffffffff161415612767576040517f08c379a000000000000000000000000000000000000000000000000000000000815260040161275e906134fe565b60405180910390fd5b61277382600083612b4a565b60008060008473ffffffffffffffffffffffffffffffffffffffff1673ffffffffffffffffffffffffffffffffffffffff168152602001908152602001600020549050818110156127f9576040517f08c379a00000000000000000000000000000000000000000000000000000000081526004016127f09061341e565b60405180910390fd5b81816128059190613731565b6000808573ffffffffffffffffffffffffffffffffffffffff1673ffffffffffffffffffffffffffffffffffffffff1681526020019081526020016000208190555081600260008282546128599190613731565b92505081905550600073ffffffffffffffffffffffffffffffffffffffff168373ffffffffffffffffffffffffffffffffffffffff167fddf252ad1be2c89b69c2b068fc378daa952ba7f163c4a11628f55a4df523b3ef846040516128be91906135fe565b60405180910390a3505050565b600073ffffffffffffffffffffffffffffffffffffffff168373ffffffffffffffffffffffffffffffffffffffff16141561293b576040517f08c379a00000000000000000000000000000000000000000000000000000000081526004016129329061353e565b60405180910390fd5b600073ffffffffffffffffffffffffffffffffffffffff168273ffffffffffffffffffffffffffffffffffffffff1614156129ab576040517f08c379a00000000000000000000000000000000000000000000000000000000081526004016129a2906133fe565b60405180910390fd5b6129b6838383612b4a565b60008060008573ffffffffffffffffffffffffffffffffffffffff1673ffffffffffffffffffffffffffffffffffffffff16815260200190815260200160002054905081811015612a3c576040517f08c379a0000000000000000000000000000000000000000000000000000000008152600401612a339061347e565b60405180910390fd5b8181612a489190613731565b6000808673ffffffffffffffffffffffffffffffffffffffff1673ffffffffffffffffffffffffffffffffffffffff16815260200190815260200160002081905550816000808573ffffffffffffffffffffffffffffffffffffffff1673ffffffffffffffffffffffffffffffffffffffff1681526020019081526020016000206000828254612ad89190613650565b925050819055508273ffffffffffffffffffffffffffffffffffffffff168473ffffffffffffffffffffffffffffffffffffffff167fddf252ad1be2c89b69c2b068fc378daa952ba7f163c4a11628f55a4df523b3ef84604051612b3c91906135fe565b60405180910390a350505050565b612b55838383612be7565b600073ffffffffffffffffffffffffffffffffffffffff168373ffffffffffffffffffffffffffffffffffffffff161415612be25760065481612b96610909565b612ba09190613650565b1115612be1576040517f08c379a0000000000000000000000000000000000000000000000000000000008152600401612bd89061355e565b60405180910390fd5b5b505050565b505050565b600081359050612bfb816138bd565b92915050565b600081359050612c10816138d4565b92915050565b600060208284031215612c2857600080fd5b6000612c3684828501612bec565b91505092915050565b60008060408385031215612c5257600080fd5b6000612c6085828601612bec565b9250506020612c7185828601612bec565b9150509250929050565b600080600060608486031215612c9057600080fd5b6000612c9e86828701612bec565b9350506020612caf86828701612bec565b9250506040612cc086828701612c01565b9150509250925092565b60008060408385031215612cdd57600080fd5b6000612ceb85828601612bec565b9250506020612cfc85828601612c01565b9150509250929050565b600060208284031215612d1857600080fd5b6000612d2684828501612c01565b91505092915050565b612d3881613765565b82525050565b612d4781613777565b82525050565b6000612d5882613634565b612d62818561363f565b9350612d728185602086016137ba565b612d7b816138ac565b840191505092915050565b6000612d93601e8361363f565b91507f45524332303a206c6f636b20616d6f756e74206f76657220626c616e636500006000830152602082019050919050565b6000612dd360238361363f565b91507f45524332303a207472616e7366657220746f20746865207a65726f206164647260008301527f65737300000000000000000000000000000000000000000000000000000000006020830152604082019050919050565b6000612e3960228361363f565b91507f45524332303a206275726e20616d6f756e7420657863656564732062616c616e60008301527f63650000000000000000000000000000000000000000000000000000000000006020830152604082019050919050565b6000612e9f60268361363f565b91507f4f776e61626c653a206e6577206f776e657220697320746865207a65726f206160008301527f64647265737300000000000000000000000000000000000000000000000000006020830152604082019050919050565b6000612f0560228361363f565b91507f45524332303a20617070726f766520746f20746865207a65726f20616464726560008301527f73730000000000000000000000000000000000000000000000000000000000006020830152604082019050919050565b6000612f6b60268361363f565b91507f45524332303a207472616e7366657220616d6f756e742065786365656473206260008301527f616c616e636500000000000000000000000000000000000000000000000000006020830152604082019050919050565b6000612fd160288361363f565b91507f45524332303a207472616e7366657220616d6f756e742065786365656473206160008301527f6c6c6f77616e63650000000000000000000000000000000000000000000000006020830152604082019050919050565b600061303760208361363f565b91507f4f776e61626c653a2063616c6c6572206973206e6f7420746865206f776e65726000830152602082019050919050565b600061307760148361363f565b91507f45524332303a2063616e6e6f7420756e6c6f636b0000000000000000000000006000830152602082019050919050565b60006130b760218361363f565b91507f45524332303a206275726e2066726f6d20746865207a65726f2061646472657360008301527f73000000000000000000000000000000000000000000000000000000000000006020830152604082019050919050565b600061311d60218361363f565b91507f4661726d696e6720686173206265656e207374617274656420616c726561647960008301527f21000000000000000000000000000000000000000000000000000000000000006020830152604082019050919050565b600061318360258361363f565b91507f45524332303a207472616e736665722066726f6d20746865207a65726f20616460008301527f64726573730000000000000000000000000000000000000000000000000000006020830152604082019050919050565b60006131e960198361363f565b91507f45524332304361707065643a20636170206578636565646564000000000000006000830152602082019050919050565b600061322960248361363f565b91507f45524332303a20617070726f76652066726f6d20746865207a65726f2061646460008301527f72657373000000000000000000000000000000000000000000000000000000006020830152604082019050919050565b600061328f601f8361363f565b91507f45524332303a206c6f636b20746f20746865207a65726f2061646472657373006000830152602082019050919050565b60006132cf60258361363f565b91507f45524332303a2064656372656173656420616c6c6f77616e63652062656c6f7760008301527f207a65726f0000000000000000000000000000000000000000000000000000006020830152604082019050919050565b6000613335601f8361363f565b91507f45524332303a206d696e7420746f20746865207a65726f2061646472657373006000830152602082019050919050565b613371816137a3565b82525050565b613380816137ad565b82525050565b600060208201905061339b6000830184612d2f565b92915050565b60006020820190506133b66000830184612d3e565b92915050565b600060208201905081810360008301526133d68184612d4d565b905092915050565b600060208201905081810360008301526133f781612d86565b9050919050565b6000602082019050818103600083015261341781612dc6565b9050919050565b6000602082019050818103600083015261343781612e2c565b9050919050565b6000602082019050818103600083015261345781612e92565b9050919050565b6000602082019050818103600083015261347781612ef8565b9050919050565b6000602082019050818103600083015261349781612f5e565b9050919050565b600060208201905081810360008301526134b781612fc4565b9050919050565b600060208201905081810360008301526134d78161302a565b9050919050565b600060208201905081810360008301526134f78161306a565b9050919050565b60006020820190508181036000830152613517816130aa565b9050919050565b6000602082019050818103600083015261353781613110565b9050919050565b6000602082019050818103600083015261355781613176565b9050919050565b60006020820190508181036000830152613577816131dc565b9050919050565b600060208201905081810360008301526135978161321c565b9050919050565b600060208201905081810360008301526135b781613282565b9050919050565b600060208201905081810360008301526135d7816132c2565b9050919050565b600060208201905081810360008301526135f781613328565b9050919050565b60006020820190506136136000830184613368565b92915050565b600060208201905061362e6000830184613377565b92915050565b600081519050919050565b600082825260208201905092915050565b600061365b826137a3565b9150613666836137a3565b9250827fffffffffffffffffffffffffffffffffffffffffffffffffffffffffffffffff0382111561369b5761369a61381f565b5b828201905092915050565b60006136b1826137a3565b91506136bc836137a3565b9250826136cc576136cb61384e565b5b828204905092915050565b60006136e2826137a3565b91506136ed836137a3565b9250817fffffffffffffffffffffffffffffffffffffffffffffffffffffffffffffffff04831182151516156137265761372561381f565b5b828202905092915050565b600061373c826137a3565b9150613747836137a3565b92508282101561375a5761375961381f565b5b828203905092915050565b600061377082613783565b9050919050565b60008115159050919050565b600073ffffffffffffffffffffffffffffffffffffffff82169050919050565b6000819050919050565b600060ff82169050919050565b60005b838110156137d85780820151818401526020810190506137bd565b838111156137e7576000848401525b50505050565b6000600282049050600182168061380557607f821691505b602082108114156138195761381861387d565b5b50919050565b7f4e487b7100000000000000000000000000000000000000000000000000000000600052601160045260246000fd5b7f4e487b7100000000000000000000000000000000000000000000000000000000600052601260045260246000fd5b7f4e487b7100000000000000000000000000000000000000000000000000000000600052602260045260246000fd5b6000601f19601f8301169050919050565b6138c681613765565b81146138d157600080fd5b50565b6138dd816137a3565b81146138e857600080fd5b5056fea2646970667358221220351fd7ec33c6072e23412e52642a35d3c565971b1ba5440c9093760c5879324964736f6c63430008000033",
  "immutableReferences": {},
  "source": "// SPDX-License-Identifier: MIT\r\n\r\npragma solidity 0.8.0;\r\n\r\nimport \"@openzeppelin/contracts/access/Ownable.sol\";\r\nimport \"@openzeppelin/contracts/token/ERC20/ERC20.sol\";\r\n\r\n// KimochiToken with Governance.\r\ncontract SwiftToken is ERC20(\"SwiftToken\", \"SWIFT\"), Ownable {\r\n\tuint256 private _cap = 100000000e18;\r\n\tuint256 private _totalLock;\r\n\r\n\tuint256 public lockFromBlock;\r\n\tuint256 public lockToBlock;\r\n\tuint256 public transferBurnRate;\r\n\tbool public farmingEnabled;\r\n\t\r\n\tmapping(address => bool) internal minters;\r\n\tmapping(address => uint256) internal minterAllowed;\r\n\taddress public masterMinter;\r\n    uint public mintersLength_;\r\n\r\n\tmapping(address => uint256) private _locks;\r\n\tmapping(address => bool) private _transferBurnAddresses;\r\n\tmapping(address => uint256) private _lastUnlockBlock;\r\n\r\n\tevent MinterConfigured(address indexed minter, uint256 minterAllowedAmount);\r\n\tevent MinterRemoved(address indexed oldMinter);\r\n\tevent MasterMinterChanged(address indexed newMasterMinter);\r\n\tevent Lock(address indexed to, uint256 value);\r\n\r\n\t/**\r\n\t * @dev Returns the cap on the token's total supply.\r\n\t */\r\n\tfunction cap() public view returns (uint256) {\r\n\t\treturn _cap;\r\n\t}\r\n\r\n\tfunction circulatingSupply() public view returns (uint256) {\r\n\t\treturn totalSupply() - (_totalLock);\r\n\t}\r\n\r\n\tfunction totalLock() public view returns (uint256) {\r\n\t\treturn _totalLock;\r\n\t}\r\n\r\n\t/**\r\n\t * @dev See {ERC20-_beforeTokenTransfer}.\r\n\t *\r\n\t * Requirements:\r\n\t *\r\n\t * - minted tokens must not cause the total supply to go over the cap.\r\n\t */\r\n\tfunction _beforeTokenTransfer(address from, address to, uint256 amount) internal virtual override {\r\n\t\tsuper._beforeTokenTransfer(from, to, amount);\r\n\r\n\t\tif (from == address(0)) { // When minting tokens\r\n\t\t\trequire(totalSupply() + (amount) <= _cap, \"ERC20Capped: cap exceeded\");\r\n\t\t}\r\n\t}\r\n\r\n\t/**\r\n\t * @dev Moves tokens `amount` from `sender` to `recipient`.\r\n\t *\r\n\t * This is internal function is equivalent to {transfer}, and can be used to\r\n\t * e.g. implement automatic token fees, slashing mechanisms, etc.\r\n\t *\r\n\t * Emits a {Transfer} event.\r\n\t *\r\n\t * Requirements:\r\n\t *\r\n\t * - `sender` cannot be the zero address.\r\n\t * - `recipient` cannot be the zero address.\r\n\t * - `sender` must have a balance of at least `amount`.\r\n\t */\r\n\tfunction _transfer(address sender, address recipient, uint256 amount) internal virtual override {\r\n\t\tif (transferBurnRate > 0 && _transferBurnAddresses[recipient] == true && recipient != address(0)) {\r\n\t\t\tuint256 _burntAmount = amount * transferBurnRate / 100;\r\n\t\t\t// Burn transferBurnRate% from amount\r\n\t\t\tsuper._burn(sender, _burntAmount);\r\n\t\t\t// Recalibrate the transfer amount\r\n\t\t\tamount = amount - _burntAmount;\r\n\t\t}\r\n\r\n\t\tsuper._transfer(sender, recipient, amount);\r\n\t}\r\n\r\n\t/// @notice Creates `_amount` token to `_to`. Must only be called by the owner (MasterChef).\r\n\tfunction mint(address _to, uint256 _amount) public onlyMasterMinter {\r\n\t\trequire(_to != address(0));\r\n\t\trequire(_amount > 0);\r\n\t\tuint256 mintingAllowedAmount = minterAllowed[_to];\r\n\t\trequire(_amount <= mintingAllowedAmount);\r\n\t\tminterAllowed[_to] = mintingAllowedAmount - (_amount);\r\n\t\t_mint(_to, _amount);\r\n\t}\r\n\r\n\tfunction totalBalanceOf(address _holder) public view returns (uint256) {\r\n\t\treturn _locks[_holder] + (balanceOf(_holder));\r\n\t}\r\n\r\n\tfunction lockOf(address _holder) public view returns (uint256) {\r\n\t\treturn _locks[_holder];\r\n\t}\r\n\r\n\tfunction lastUnlockBlock(address _holder) public view returns (uint256) {\r\n\t\treturn _lastUnlockBlock[_holder];\r\n\t}\r\n\r\n\tfunction lock(address _holder, uint256 _amount) public onlyOwner {\r\n\t\trequire(_holder != address(0), \"ERC20: lock to the zero address\");\r\n\t\trequire(_amount <= balanceOf(_holder), \"ERC20: lock amount over blance\");\r\n\r\n\t\t_transfer(_holder, address(this), _amount);\r\n\r\n\t\t_locks[_holder] = _locks[_holder] + (_amount);\r\n\t\t_totalLock = _totalLock + (_amount);\r\n\t\tif (_lastUnlockBlock[_holder] < lockFromBlock) {\r\n\t\t\t_lastUnlockBlock[_holder] = lockFromBlock;\r\n\t\t}\r\n\t\temit Lock(_holder, _amount);\r\n\t}\r\n\r\n\tfunction canUnlockAmount(address _holder) public view returns (uint256) {\r\n\t\tif (block.number < lockFromBlock) {\r\n\t\t\treturn 0;\r\n\t\t}\r\n\t\telse if (block.number >= lockToBlock) {\r\n\t\t\treturn _locks[_holder];\r\n\t\t}\r\n\t\telse {\r\n\t\t\tuint256 releaseBlock = block.number - (_lastUnlockBlock[_holder]);\r\n\t\t\tuint256 numberLockBlock = lockToBlock - (_lastUnlockBlock[_holder]);\r\n\t\t\treturn _locks[_holder] * (releaseBlock) / (numberLockBlock);\r\n\t\t}\r\n\t}\r\n\r\n\tfunction unlock() public {\r\n\t\trequire(_locks[msg.sender] > 0, \"ERC20: cannot unlock\");\r\n\t\t\r\n\t\tuint256 amount = canUnlockAmount(msg.sender);\r\n\t\t// just for sure\r\n\t\tif (amount > balanceOf(address(this))) {\r\n\t\t\tamount = balanceOf(address(this));\r\n\t\t}\r\n\t\t_transfer(address(this), msg.sender, amount);\r\n\t\t_locks[msg.sender] = _locks[msg.sender] - (amount);\r\n\t\t_lastUnlockBlock[msg.sender] = block.number;\r\n\t\t_totalLock = _totalLock - (amount);\r\n\t}\r\n\r\n\t// This function is for dev address migrate all balance to a multi sig address\r\n\tfunction transferAll(address _to) public {\r\n\t\t_locks[_to] = _locks[_to] + (_locks[msg.sender]);\r\n\r\n\t\tif (_lastUnlockBlock[_to] < lockFromBlock) {\r\n\t\t\t_lastUnlockBlock[_to] = lockFromBlock;\r\n\t\t}\r\n\r\n\t\tif (_lastUnlockBlock[_to] < _lastUnlockBlock[msg.sender]) {\r\n\t\t\t_lastUnlockBlock[_to] = _lastUnlockBlock[msg.sender];\r\n\t\t}\r\n\r\n\t\t_locks[msg.sender] = 0;\r\n\t\t_lastUnlockBlock[msg.sender] = 0;\r\n\r\n\t\t_transfer(msg.sender, _to, balanceOf(msg.sender));\r\n\t}\r\n\r\n\t/**\r\n\t * @dev Destroys `amount` tokens from the caller.\r\n\t *\r\n\t * See {ERC20-_burn}.\r\n\t */\r\n\tfunction burn(uint256 amount) public virtual returns (bool) {\r\n\t\t_burn(_msgSender(), amount);\r\n\t\treturn true;\r\n\t}\r\n\r\n\t/**\r\n\t * @dev Destroys `amount` tokens from `account`, deducting from the caller's\r\n\t * allowance.\r\n\t *\r\n\t * See {ERC20-_burn} and {ERC20-allowance}.\r\n\t *\r\n\t * Requirements:\r\n\t *\r\n\t * - the caller must have allowance for ``accounts``'s tokens of at least\r\n\t * `amount`.\r\n\t */\r\n\tfunction burnFrom(address account, uint256 amount) public virtual returns (bool) {\r\n\t\tuint256 decreasedAllowance = allowance(account, _msgSender()) - (amount);\r\n\r\n\t\t_approve(account, _msgSender(), decreasedAllowance);\r\n\t\t_burn(account, amount);\r\n\t\treturn true;\r\n\t}\r\n\r\n\tfunction addTransferBurnAddress(address _transferBurnAddress) public onlyOwner {\r\n\t\t_transferBurnAddresses[_transferBurnAddress] = true;\r\n\t}\r\n\r\n\tfunction removeTransferBurnAddress(address _transferBurnAddress) public onlyOwner {\r\n\t\tdelete _transferBurnAddresses[_transferBurnAddress];\r\n\t}\r\n\r\n\tmodifier onlyMasterMinter() {\r\n\t\trequire(msg.sender == masterMinter);\r\n\t\t_;\r\n\t}\r\n\r\n\tfunction configureMinter(address minter, uint256 minterAllowedAmount) onlyMasterMinter public {\r\n\t    require(mintersLength_ < 2);\r\n\t    if(!minters[minter]) {\r\n          \tminters[minter] = true;\r\n\t\t    minterAllowed[minter] = minterAllowedAmount;\r\n\t    \tmintersLength_ += 1;\r\n\t    \temit MinterConfigured(minter, minterAllowedAmount);\r\n        }\r\n\t}\r\n\t\r\n\tfunction removeMinter(address minter) onlyMasterMinter public {\r\n\t    if((minters[minter])){\r\n    \t    mintersLength_ -= 1;\r\n    \t\tminters[minter] = false;\r\n    \t\tminterAllowed[minter] = 0;\r\n    \t\temit MinterRemoved(minter);\r\n\t    }\r\n\t}\r\n\t\r\n\tfunction updateMasterMinter(address _newMasterMinter) onlyOwner public {\r\n\t\trequire(_newMasterMinter != address(0));\r\n\t\tmasterMinter = _newMasterMinter;\r\n\t\temit MasterMinterChanged(masterMinter);\r\n\t}\r\n\t\r\n\t\r\n\tfunction startFarming(uint256 numblock) public onlyOwner {\r\n\t\trequire(farmingEnabled == false, \"Farming has been started already!\");\r\n\t\tlockFromBlock = block.number;\r\n\t\tlockToBlock = lockFromBlock + numblock;\r\n\t\tfarmingEnabled = true;\r\n\t}\r\n\r\n\tconstructor(){\r\n\t\tlockFromBlock = 999999999;\r\n\t\tlockToBlock = 999999999;\r\n\t\tfarmingEnabled = false;\r\n\t\ttransferBurnRate = 2;\r\n\t}\r\n}",
  "sourcePath": "D:\\Developer\\Matic\\swift.finance\\swift-contracts\\contracts\\SwiftToken.sol",
  "compiler": {
    "name": "solc",
    "version": "0.8.0+commit.c7dfd78e.Emscripten.clang"
  },
  "schemaVersion": "3.3.4",
  "updatedAt": "2021-05-16T19:04:26.912Z",
  "devdoc": {
    "kind": "dev",
    "methods": {
      "allowance(address,address)": {
        "details": "See {IERC20-allowance}."
      },
      "approve(address,uint256)": {
        "details": "See {IERC20-approve}. Requirements: - `spender` cannot be the zero address."
      },
      "balanceOf(address)": {
        "details": "See {IERC20-balanceOf}."
      },
      "burn(uint256)": {
        "details": "Destroys `amount` tokens from the caller. See {ERC20-_burn}."
      },
      "burnFrom(address,uint256)": {
        "details": "Destroys `amount` tokens from `account`, deducting from the caller's allowance. See {ERC20-_burn} and {ERC20-allowance}. Requirements: - the caller must have allowance for ``accounts``'s tokens of at least `amount`."
      },
      "cap()": {
        "details": "Returns the cap on the token's total supply."
      },
      "decimals()": {
        "details": "Returns the number of decimals used to get its user representation. For example, if `decimals` equals `2`, a balance of `505` tokens should be displayed to a user as `5,05` (`505 / 10 ** 2`). Tokens usually opt for a value of 18, imitating the relationship between Ether and Wei. This is the value {ERC20} uses, unless this function is overridden; NOTE: This information is only used for _display_ purposes: it in no way affects any of the arithmetic of the contract, including {IERC20-balanceOf} and {IERC20-transfer}."
      },
      "decreaseAllowance(address,uint256)": {
        "details": "Atomically decreases the allowance granted to `spender` by the caller. This is an alternative to {approve} that can be used as a mitigation for problems described in {IERC20-approve}. Emits an {Approval} event indicating the updated allowance. Requirements: - `spender` cannot be the zero address. - `spender` must have allowance for the caller of at least `subtractedValue`."
      },
      "increaseAllowance(address,uint256)": {
        "details": "Atomically increases the allowance granted to `spender` by the caller. This is an alternative to {approve} that can be used as a mitigation for problems described in {IERC20-approve}. Emits an {Approval} event indicating the updated allowance. Requirements: - `spender` cannot be the zero address."
      },
      "name()": {
        "details": "Returns the name of the token."
      },
      "owner()": {
        "details": "Returns the address of the current owner."
      },
      "renounceOwnership()": {
        "details": "Leaves the contract without owner. It will not be possible to call `onlyOwner` functions anymore. Can only be called by the current owner. NOTE: Renouncing ownership will leave the contract without an owner, thereby removing any functionality that is only available to the owner."
      },
      "symbol()": {
        "details": "Returns the symbol of the token, usually a shorter version of the name."
      },
      "totalSupply()": {
        "details": "See {IERC20-totalSupply}."
      },
      "transfer(address,uint256)": {
        "details": "See {IERC20-transfer}. Requirements: - `recipient` cannot be the zero address. - the caller must have a balance of at least `amount`."
      },
      "transferFrom(address,address,uint256)": {
        "details": "See {IERC20-transferFrom}. Emits an {Approval} event indicating the updated allowance. This is not required by the EIP. See the note at the beginning of {ERC20}. Requirements: - `sender` and `recipient` cannot be the zero address. - `sender` must have a balance of at least `amount`. - the caller must have allowance for ``sender``'s tokens of at least `amount`."
      },
      "transferOwnership(address)": {
        "details": "Transfers ownership of the contract to a new account (`newOwner`). Can only be called by the current owner."
      }
    },
    "version": 1
  },
  "userdoc": {
    "kind": "user",
    "methods": {
      "mint(address,uint256)": {
        "notice": "Creates `_amount` token to `_to`. Must only be called by the owner (MasterChef)."
      }
    },
    "version": 1
  }
}